:1000000070C0000051C1000080C10000AFC10000FD
:10001000DEC100000DC200003CC200006BC2000047
:100020009AC2000088C0000086C0000084C00000A2
:1000300082C0000080C000007EC000007CC00000C4
:100040007BC0000078C00000C0C400001DC50000D7
:10005000F2C4000070C000006EC000006CC0000060
:100060006AC0000068C0000066C0000064C00000F4
:1000700062C0000060C000001CC4000050C400004A
:100080005AC0000058C0000056C00000434D443A1A
:1000900020436F6D6D616E64206E6F7420726563B6
:1000A0006F676E697A65642E00434D443E20002AD6
:1000B0002A2A204963655363696E74205253343889
:1000C000352076312E3120636F6D6D616E6420694D
:1000D0006E74657266616365202A2A2A0000B8047E
:1000E0006D0511241FBECFEFD0E1DEBFCDBF13E001
:1000F000A0E0B1E0E2ECFDE100E00BBF02C0079040
:100100000D92AA3FB107D9F726E0AAEFB3E001C0EC
:100110001D92AC35B207E1F710E0C1E7D0E004C0B2
:100120002197FE010E94100DCF36D107C9F70E941A
:10013000880C0C94DF0E64CF1F920F920FB60F92B3
:1001400011242F933F938F939F93AF93BF938091ED
:10015000FD039091FE03A091FF03B0910004309144
:10016000FC0329E3230F2D3758F50596A11DB11D7A
:100170002093FC038093FD039093FE03A093FF0361
:10018000B09300048091010490910204A0910304B3
:10019000B09104040196A11DB11D809301049093B8
:1001A0000204A0930304B0930404BF91AF919F9104
:1001B0008F913F912F910F900FBE0F901F90189528
:1001C0002CEB230F0696A11DB11DD2CF9FB7F8943B
:1001D0004091010450910204609103047091040461
:1001E00082B706B600FE06C08F3F21F04F5F5F4F1B
:1001F0006F4F7F4F9FBF2227342F452F562F280F39
:10020000311D411D511DA5E1B0E00C94190D08955B
:10021000CF92DF92EF92FF92CF93DF936B017C013D
:10022000D5DFEB01C114D104E104F10439F4DF910D
:10023000CF91FF90EF90DF90CF900895BDD1C6DFB2
:100240006C1B7D0B683E734068F381E0C81AD108CF
:10025000E108F108C851DC4FE5CF789483B784609A
:1002600083BF87B7816087BF1EBC8EB582608EBD9D
:100270008FB581608FBD85B5846085BD85B580648F
:1002800085BDEAE8F0E080818260808380818160C2
:100290008083EBE8F0E0808181608083329A319A3C
:1002A000309A379A1AB808951F920F920FB60F928C
:1002B00011240BB60F922F933F934F935F936F933D
:1002C0007F938F939F93AF93BF93EF93FF9380910F
:1002D000090490910A04892B29F0E0910904F09116
:1002E0000A040995FF91EF91BF91AF919F918F9172
:1002F0007F916F915F914F913F912F910F900BBE26
:100300000F900FBE0F901F9018951F920F920FB66F
:100310000F9211240BB60F922F933F934F935F933D
:100320006F937F938F939F93AF93BF93EF93FF93BD
:1003300080910B0490910C04892B29F0E0910B041F
:10034000F0910C040995FF91EF91BF91AF919F91AE
:100350008F917F916F915F914F913F912F910F906E
:100360000BBE0F900FBE0F901F9018951F920F920B
:100370000FB60F9211240BB60F922F933F934F930A
:100380005F936F937F938F939F93AF93BF93EF93FD
:10039000FF9380910D0490910E04892B29F0E09138
:1003A0000D04F0910E040995FF91EF91BF91AF916B
:1003B0009F918F917F916F915F914F913F912F917D
:1003C0000F900BBE0F900FBE0F901F9018951F92AD
:1003D0000F920FB60F9211240BB60F922F933F93EB
:1003E0004F935F936F937F938F939F93AF93BF933D
:1003F000EF93FF9380910F0490911004892B29F0C3
:10040000E0910F04F09110040995FF91EF91BF91D5
:10041000AF919F918F917F916F915F914F913F919C
:100420002F910F900BBE0F900FBE0F901F9018953D
:100430001F920F920FB60F9211240BB60F922F93AB
:100440003F934F935F936F937F938F939F93AF935C
:10045000BF93EF93FF938091050490910604892B3D
:1004600029F0E0910504F09106040995FF91EF91C0
:10047000BF91AF919F918F917F916F915F914F91BC
:100480003F912F910F900BBE0F900FBE0F901F90BA
:1004900018951F920F920FB60F9211240BB60F9260
:1004A0002F933F934F935F936F937F938F939F937C
:1004B000AF93BF93EF93FF9380910704909108044B
:1004C000892B29F0E0910704F09108040995FF9128
:1004D000EF91BF91AF919F918F917F916F915F91BC
:1004E0004F913F912F910F900BBE0F900FBE0F9029
:1004F0001F9018951F920F920FB60F9211240BB6F2
:100500000F922F933F934F935F936F937F938F93AC
:100510009F93AF93BF93EF93FF93809111049091BA
:100520001204892B29F0E0911104F091120409952D
:10053000FF91EF91BF91AF919F918F917F916F91BB
:100540005F914F913F912F910F900BBE0F900FBE77
:100550000F901F9018951F920F920FB60F921124B3
:100560000BB60F922F933F934F935F936F937F93AD
:100570008F939F93AF93BF93EF93FF938091130457
:1005800090911404892B29F0E0911304F091140444
:100590000995FF91EF91BF91AF919F918F917F91BD
:1005A0006F915F914F913F912F910F900BBE0F90E4
:1005B0000FBE0F901F9018950895A0E0B0E0E3EEF5
:1005C000F2E00C942D0D6C01EB017B01E40EF51EA5
:1005D00000E010E0CE15DF0561F06991D601ED91E4
:1005E000FC910190F081E02DC6010995080F191FBB
:1005F000F1CFC801CDB7DEB7E8E00C94490D0F93F9
:100600001F93CF93DF938C01EB01209791F0CB01E7
:100610000E94AF0ED801ED91FC910280F381E02D94
:10062000AC01BE01C8010995DF91CF911F910F91D7
:10063000089580E090E0F8CFE2CF0895DC01ED91DD
:10064000FC910190F081E02D099508950F931F937F
:10065000CF93DF93EC016DE0F1DF8C016AE0CE0116
:10066000EDDF800F911FDF91CF911F910F910895C2
:100670000F931F93CF93DF93EC01C1DF8C01CE0169
:10068000E5DF800F911FDF91CF911F910F910895AA
:10069000FC01918D228D892F90E0805C9F4F821B01
:1006A00091098F7399270895FC01918D828D981778
:1006B00031F0828DE80FF11D858D90E008958FEF68
:1006C0009FEF0895FC01918D828D981761F0828DC6
:1006D000DF01A80FB11D5D968C91928D9F5F9F7376
:1006E000928F90E008958FEF9FEF0895FC01848D25
:1006F000DF01A80FB11DA35ABF4F2C91848D90E04C
:1007000001968F739927848FA689B7892C93A08926
:10071000B1898C9180648C93938D848D981306C0DD
:100720000288F389E02D80818F7D80830895CF93A7
:10073000DF93EC01888D882351F0EA89FB89808161
:1007400085FD08C0A889B9898C9186FF03C0DF9117
:10075000CF9108950FB607FCF2CF808185FFEFCFD0
:10076000E889F989808185FFE8CFCE01BFDFE5CF39
:10077000EF92FF920F931F93CF93DF93EC01F62E2E
:100780009B8D8C8D981305C0E889F989808185FD42
:100790002BC00B8D10E00F5F1F4F0F731127E02E42
:1007A0008C8DE8120BC00FB607FCFACFE889F989E7
:1007B000808185FFF5CFCE0199DFF2CF8B8DFE01D1
:1007C000E80FF11DE35AFF4FF0820B8FEA89FB8996
:1007D00080818062808381E0888F81E090E0CDB766
:1007E000DEB7E6E00C944B0DEE89FF896083E88963
:1007F000F989808180648083F0CFCF92DF92EF927D
:10080000FF921F93CF93DF93EC016A017B01122FBC
:1008100060E070E18EE090E0A70196010E94EE0C8E
:10082000215031094109510956954795379527952A
:10083000E889F98982E08083211580E1380798F002
:10084000E889F989108260E078E087E090E0A7010C
:1008500096010E94EE0C215031094109510956952B
:10086000479537952795EC85FD853083EE85FF8587
:100870002083188EEC89FD891083EA89FB898081A9
:1008800080618083EA89FB89808188608083EA892E
:10089000FB89808180688083EA89FB8980818F7DE4
:1008A0008083DF91CF911F91FF90EF90DF90CF90E9
:1008B00008951F920F920FB60F9211240BB60F924C
:1008C0002F938F939F93EF93FF93E0912504F091E3
:1008D00026048081E0912B04F0912C0482FD1DC040
:1008E000908180912E048F5F8F7320912F04821747
:1008F00041F0E0912E04F0E0EB5EFB4F958F80938A
:100900002E04FF91EF919F918F912F910F900BBE2D
:100910000F900FBE0F901F9018958081F2CF1F92FD
:100920000F920FB60F9211240BB60F922F933F9395
:100930004F935F936F937F938F939F93AF93BF93E7
:10094000EF93FF9385E194E0D1DEFF91EF91BF91AA
:10095000AF919F918F917F916F915F914F913F9157
:100960002F910F900BBE0F900FBE0F901F901895F8
:10097000E5E1F4E01382128288EE93E0A0E0B0E0BB
:1009800084839583A683B7838AE091E091838083F3
:1009900088E990E09587848789E990E09787868742
:1009A0008BE990E0918B808B8AE990E0938B828B2E
:1009B0008DE990E0958B848B8CE990E0978B868B0A
:1009C000118E128E138E148E08951F920F920FB6F1
:1009D0000F9211240BB60F922F938F939F93EF9347
:1009E000FF93E091C204F091C3048081E091C804B8
:1009F000F091C90482FD1DC090818091CD048F5F6C
:100A00008F732091CE04821741F0E091CD04F0E085
:100A1000EE54FB4F978F8093CD04FF91EF919F9100
:100A20008F912F910F900BBE0F900FBE0F901F90C4
:100A300018958081F2CF1F920F920FB60F9211245A
:100A40000BB60F922F933F934F935F936F937F93C8
:100A50008F939F93AF93BF93EF93FF9382EB94E0B9
:100A6000C2D1FF91EF91BF91AF919F918F917F91F3
:100A70006F915F914F913F912F910F900BBE0F900F
:100A80000FBE0F901F9018951F920F920FB60F92E6
:100A900011240BB60F922F933F934F935F936F9355
:100AA0007F938F939F93AF93BF93EF93FF9382EBCB
:100AB00094E097D1FF91EF91BF91AF919F918F916A
:100AC0007F916F915F914F913F912F910F900BBE4E
:100AD0000F900FBE0F901F901895E2EBF4E0138279
:100AE000128288EE93E0A0E0B0E084839583A68331
:100AF000B7838AE791E09183808380E990E09587CE
:100B0000848789E290E0978786878BE290E0918BDB
:100B1000808B8AE290E0938B828B85E990E0958BC5
:100B2000848B8CE290E0978B868B138E148E158EBF
:100B3000168E0895FC01938D248D892F90E0805CA2
:100B40009F4F821B91098F7399270895FC01938D04
:100B5000848D981731F0848DE80FF11D878D90E01A
:100B600008958FEF9FEF0895FC01938D848D981762
:100B700061F0848DDF01A80FB11D5F968C91948D7B
:100B80009F5F9F73948F90E008958FEF9FEF08957C
:100B9000CF93DF93EC01298D3A8D898D9A8D662351
:100BA00069F0019697FF0CC066E171E085E194E081
:100BB00026DD1A8E198EDF91CF9108950197F2CF1D
:100BC000149A21153105B9F48130910509F03CC022
:100BD0009A8F898F1C9AEA89FB8980818F7E808316
:100BE000EA89FB8980818860808362E070E080E030
:100BF00090E00EDBE0CF2130310531F5009721F593
:100C0000E881F9810284F385E02DCE01099562E047
:100C100070E080E090E0FCDAE889F989808186FD67
:100C200005C06DE271E085E194E0E9DC1A8E198E71
:100C3000EA89FB89808180618083EA89FB898081E0
:100C4000877F80831C98B7CF9A8F898FB4CF61E05C
:100C50009FCF60E09DCFFC01958D868D9817F1F0B8
:100C6000868DDF01A80FB11DA15ABF4F2C91868D33
:100C700090E001968F739927868FA689B7892C9368
:100C8000A089B1898C9180648C930288F389E02DCE
:100C900080818062808381E090E008950288F389FA
:100CA000E02D80818F7D80838FEF9FEF0895CF931C
:100CB000DF93EC01898D9A8D892B41F465E371E016
:100CC00085E194E09CDCDF91CF910895888D8823A5
:100CD000D1F39D8D8E8D981739F10FB607FCF9CFA2
:100CE000EA89FB89808185FFF4CFE889F9898081D1
:100CF00085FFEFCFCE01AFDF63E471E085E194E0E3
:100D00007EDCE7CF0FB607FC11C0808185FF0EC0E7
:100D1000E889F989808185FF07C0CE019CDF6FE4F7
:100D200071E085E194E06BDCEA89FB89808185FDD7
:100D3000E9CFA889B9898C9186FFE4CF8C9185FF92
:100D4000E1CFEA89FB89808185FD05C0E889F989C1
:100D5000808186FDB8CF6BE571E085E194E04FDCE2
:100D6000F0CFEF92FF920F931F93CF93DF93EC019D
:100D7000F62E898D9A8D892B59F465E371E085E112
:100D800094E03DDC80E090E0CDB7DEB7E6E083C6DE
:100D90000D8D10E00F5F1F4F0F731127E02E8E8D0A
:100DA000E8120BC00FB607FCFACFE889F9898081F9
:100DB00085FFF5CFCE014FDFF2CF8D8DFE01E80F1D
:100DC000F11DE15AFF4FF0820D8FEA89FB89808186
:100DD00085FD02C0CE013FDF81E0888F81E090E099
:100DE000D3CF39CF08956AE671E085E194E007CC6E
:100DF000CF92DF92EF92FF921F93CF93DF93EC019C
:100E00006A017B01122F60E070E18EE090E0A701A3
:100E10009601E4D52150310941095109569547956C
:100E200037952795E889F98982E08083211580E14B
:100E3000380790F0E889F989108260E078E087E06F
:100E400090E0A7019601CAD5215031094109510905
:100E50005695479537952795EC85FD853083EE852A
:100E6000FF852083188EEC89FD891083149A61E038
:100E7000CE018EDE60E0CE018BDEEA89FB898081C7
:100E800080618083EA89FB898081877F8083EA890A
:100E9000FB89808180688083EA89FB8980818F7DDE
:100EA00080831A8E198EDF91CF911F91FF90EF9062
:100EB000DF90CF900895FC016083328321833483D7
:100EC00023835683458317820895FC011582808110
:100ED000873019F09681960F96831782811108C08A
:100EE0006A3C09F074C08AEC868381E080830AC082
:100EF000813059F46A3CB9F36E3F11F482E0F6CFC9
:100F00008783108280E090E081C0823029F4A18143
:100F1000B2816C9383E0EACF833049F4A181B2813E
:100F200070E012967C936E93119784E0DFCF84304B
:100F3000E9F4A181B28111968D919C911297962B23
:100F400012969C938E9311971482138215820097A8
:100F500011F487E0CBCF13962D913C911497821713
:100F6000930710F485E0C2CF86E0C0CF8530F9F456
:100F7000A181B28115960D90BC91A02D83819481A1
:100F8000A80FB91F6C938381948101969483838306
:100F9000A181B28111962D913C91129782179307EE
:100FA00009F0B0CF87E0808381E08583ABCF8630C6
:100FB00089F483819481019694838383A181B28192
:100FC00011962D913C9112978217930711F280E0B0
:100FD00090E00895873049F48681681721F01082E7
:100FE00084E087838FCF88E081CF883039F46F3EEB
:100FF00011F489E07BCF108282E0F3CF1082893038
:1010000009F080CF6C3A59F481E090E027812223E7
:1010100001F3822F90E0919581959109089583E0E5
:10102000E0CFA4E6B0E0E6E1F8E01DC582EB94E095
:101030000DDB6FEA70E0CE01019677D6BE016F5FDF
:101040007F4F82EB94E014DB69EA70E0CE010196F9
:101050006CD6BE016F5F7F4F82EB94E0EDDACC5926
:10106000DF4FE2E01CC5A0EAB0E0E8E3F8E0F5C439
:1010700063E371E061D69E012B593F4FD9018D93F7
:101080009D937D0101E010E0D02EC12E63E371E05D
:1010900080E090E051D6F701819391937F010E316A
:1010A000110541F50091DA051091DB05A796EEAC2C
:1010B000FFACA7970115110539F1D8016D917C910D
:1010C000C7013DD6892BE1F482EB94E0C0DDD80165
:1010D0001296ED91FC911397BE016B597F4F8D2DA8
:1010E0009C2D09959EDF82EB94E0B3DDC056DF4F67
:1010F000E8E0CFC40F5F1F4F892B09F0C5CFD2CFD7
:10110000F80104811581D6CF82EB94E0A0DD6CE874
:1011100070E0CE01019609D6BE016F5F7F4F82EB72
:1011200094E0A6DADFCFCF92DF92EF92FF926B01CD
:101130007C0180EE95E09093DF058093DE051092B0
:10114000DD051092DC051092D90528E730E041E674
:1011500055E060E081E595E0AEDEE9E5F5E010827E
:1011600081E595E09283818326E0B701A60182EBB9
:1011700094E03EDEFF90EF90DF90CF900895EF92E5
:10118000FF920F931F93CF93DF938C017B0186E037
:1011900090E09FD49093DB058093DA05C801DFD5FA
:1011A000019697D4EC01B801D3D5C801D8D58C0FDE
:1011B0009D1FFC011082E091DA05F091DB05D183DF
:1011C000C083F382E2828091DC059091DD059583F6
:1011D0008483F093DD05E093DC05CDB7DEB7E6E070
:1011E0005AC4CF93DF9382EB94E0BEDCEC01809194
:1011F000D90581115AC0CE0199278D30910529F169
:101200008A3C9105C1F0089709F039C082EB94E05F
:101210001EDD6C2F82EB94E011DA82EB94E019DD95
:101220008091DE059091DF0525E0803E920751F028
:1012300048F001971FC081E08093D9056C2F89E5A4
:1012400095E043DEDF91CF910895E091DE05F091C6
:10125000DF05108282EB94E0FADC6CE772E082EB4F
:1012600094E0EAD980EE95E0FEDE82EB94E0F1DCDA
:1012700080EE95E09093DF058093DE05E3CF82EB6F
:1012800094E0E5DC6C2F82EB94E0D8D982EB94E01B
:10129000E0DCE091DE05F091DF05CF01019690934F
:1012A000DF058093DE05C083CDCF6C2F89E595E007
:1012B0000CDE892B31F081E595E0F8D11092D9054B
:1012C000C1CF809159058823C9F3BCCF82EB94E04C
:1012D00031DC892B11F085DFF9CF089590E01DD521
:1012E0009FE9980F963010F4875508959FEB980F5B
:1012F000963010F48C53089580538A3008F08FEFA5
:10130000089566E871E082EB94E0B2C965E971E0A6
:1013100082EB94E074D961EB71E082EB94E06FD9D9
:101320006EEC71E082EB94E06AD962E172E082EBEC
:1013300094E065D966E472E082EB94E060D96FE7EF
:1013400072E082EB94E05BD967E972E082EB94E0B3
:1013500056C90F931F93CF93DF93EB01181619060D
:1013600084F50A811B81B8018DE491E0E8D4892BD2
:1013700059F46FEB72E082EB94E041D91F9ADF9150
:10138000CF911F910F910895B8018BEC92E0D7D4C3
:10139000892B39F46DEC72E082EB94E030D91F9820
:1013A000EECF69ED72E082EB94E029D96A817B810E
:1013B00082EB94E024D96DE173E082EB94E01FD9D5
:1013C000DECF64EF72E082EB94E019D91F9B03C07B
:1013D0006DEF72E0F2CF61E073E0EFCF0F931F93F8
:1013E000CF93DF93EB011816190684F50A811B8150
:1013F000B8018DE491E0A3D4892B59F465E073E042
:1014000082EB94E0FCD81D9ADF91CF911F910F9150
:101410000895B8018BEC92E092D4892B39F463E102
:1014200073E082EB94E0EBD81D98EECF61E273E0BD
:1014300082EB94E0E4D86A817B8182EB94E0DFD890
:101440006DE173E082EB94E0DAD8DECF6EE373E017
:1014500082EB94E0D4D81D9B03C06DEF72E0F2CF15
:1014600061E073E0EFCF64EF72E082EB94E0C7D805
:101470001F9B11C06DEF72E082EB94E0C0D86EE369
:1014800073E082EB94E0BBD81D9B08C06DEF72E067
:1014900082EB94E0B4C861E073E0EECF61E073E00A
:1014A000F7CFDC01ED91FC910190F081E02D0995E1
:1014B0000895DC01ED91FC910190F081E02D0995FA
:1014C00008958F708A3010F0895C0895805D0895CA
:1014D000CF93DF93EC01862F623041F491E098AF17
:1014E0001CAA6EAB80E0DF91CF91089598AD91304A
:1014F000B1F49EA9960F9EAB9CA9633019F49DABE5
:1015000088AFF0CFFE01E90FF11D608381E0890F04
:101510008CAB833338F392E098AF8DABE3CF92304E
:1015200031F49EA9960F9EAB6330E1F6E9CF93307C
:1015300031F4D4DE8295807F8FAB84E0E1CF9430AC
:1015400031F4CCDE9FA9892B8FAB85E0D9CF9530C4
:1015500049F618AE81E0C7CF892B11F01F9A089584
:101560001F98089583B1082E000C990B892F881FAE
:101570008827881F90E00895892B11F01D9A0895FF
:101580001D98089583B185FB882780F990E0089520
:1015900026E240E056E960E070E085E194E02DD974
:1015A00060E875E280E090E0BEDD61E879E086E425
:1015B00093E0E5DD6EE87CE08CE493E0E0DD66E856
:1015C00079E080E593E0DBDD69EA79E085E593E0A9
:1015D000D6DD6EEE79E08BE593E0D1DD63E37AE072
:1015E00083E693E0CCDD82B1886B82B981E081BB78
:1015F0001092540610925606109255060895AF9216
:10160000BF92CF92DF92EF92FF920F931F93CF93EF
:10161000C82F6B017A0182EB94E019DB6AEC70E071
:1016200082EB94E046DF6EEF70E082EB94E041DF06
:101630006C2F82EB94E095DBCE0D6E2D82EB94E067
:1016400090DBC8536F2D82EB94E08BDBCF0D8601CE
:101650005601AE0CBF1C0A151B0559F06801F801B4
:1016600061918F0182EB94E07CDBF6018081C80FF1
:10167000F2CF6C2F82EB94E074DB6FEE70E082EBC4
:1016800094E017DF6CEA70E082EB94E012DF82EB0B
:1016900094E0DFDAC7010896CF911F910F91FF9078
:1016A000EF90DF90CF90BF90AF900895CF92DF92F0
:1016B000FF920F931F93CF93DF93CDB7DEB7E297DF
:1016C0000FB6F894DEBF0FBECDBF8C01DC018C914C
:1016D000803181F484E0898383E08A8382E08B8394
:1016E00081E08C8344E050E0BE016F5F7F4F80E17A
:1016F00086DF6AC0813179F4D8011596ED91FC91AD
:101700001697808190E028DF40E050E0BE016F5FD7
:101710007F4F81E1EDCF823179F4D8011596ED91BB
:10172000FC911697808190E027DF40E050E0BE01F9
:101730006F5F7F4F82E1DCCF833109F053C062E0FD
:1017400070E085E194E0ADDEC12CD12C82E0F82E72
:10175000F80181819281C816D906B0F40580F6811E
:10176000E02DEC0DFD1D608185E194E001D8D801EC
:101770001596ED91FC911697EC0DFD1D8081F80EEC
:10178000BFEFCB1ADB0AE4CF63E070E085E194E0C1
:1017900088DE13E01F0D812F82958F7092DE682FF7
:1017A00070E085E194E07DDE812F8F708ADE682F06
:1017B00070E085E194E075DE6DE070E085E194E035
:1017C00070DE81E080935706E2960FB6F894DEBF94
:1017D0000FBECDBFDF91CF911F910F91FF90DF9092
:1017E000CF900895843159F4BDDE8983CBDE8A839E
:1017F00042E050E0BE016F5F7F4F84E179CF898383
:10180000F801918182819A838B8343E050E0BE018D
:101810006F5F7F4F85E16CCF59DD85E194E00E94D9
:101820004803892B09F473C085E194E00E946203A8
:10183000682F8CE196E04CDE882309F468C0809123
:10184000570681115DC082EB94E001DA6CE772E02B
:1018500082EB94E00E94FF026AE673E082EB94E080
:101860000E94FF024091510650E06CE176E082EB6D
:1018700094E00E94DD0261E773E082EB94E00E9455
:10188000FF029091520680915306981781F164E708
:1018900073E082EB94E00E94FF02809152068295F1
:1018A0008F700FDE682F70E082EB94E002DE809193
:1018B000520607DE682F70E082EB94E0FADD67E8FD
:1018C00073E082EB94E00E94FF02809153068295C0
:1018D0008F70F7DD682F70E082EB94E0EADD809195
:1018E0005306EFDD682F70E082EB94E0E2DD6AE8FA
:1018F00073E082EB94E00E94FF0282EB94E0A9C9BE
:101900004091510650E06CE176E083E178CE089595
:101910000E942D013DDE78947FDFFECFA4E6B0E08B
:10192000E3E9FCE09AC097FF0AC061E973E082EB4B
:1019300094E00E943803CC59DF4FE8E0AAC0FB01D5
:10194000E280F380C7010BD28C01C4971CF06BEBD3
:1019500073E0EDCF82E08983AE014F5F5F4FD70127
:101960006A014F5F5F4F9D012E193F092017310714
:1019700044F49D019D91FA019083F9019081890FB2
:10198000F0CFFE01E00FF11F93E0928393E0F92E78
:10199000F80E8F2D82958F7094DDFE01E00FF11F00
:1019A00083838F2D8F708DDDFE01E00FF11F848307
:1019B000FE01E00FF11F8DE085836DED73E082EB9A
:1019C00094E00E943803A8014B5F5F4FB60185E1A8
:1019D00094E00E94DD0210925706ADCFA1E21A2ECC
:1019E000AA1BBB1BFD010DC0AA1FBB1FEE1FFF1FC3
:1019F000A217B307E407F50720F0A21BB30BE40B13
:101A0000F50B661F771F881F991F1A9469F7609559
:101A10007095809590959B01AC01BD01CF01089513
:101A2000EE0FFF1F0024001C0BBE0790F691E02D67
:101A3000099440D0A59F900DB49F900DA49F800D58
:101A4000911D112408952F923F924F925F926F92B1
:101A50007F928F929F92AF92BF92CF92DF92EF923E
:101A6000FF920F931F93CF93DF93CDB7DEB7CA1BBF
:101A7000DB0B0FB6F894DEBF0FBECDBF09942A88EA
:101A8000398848885F846E847D848C849B84AA8492
:101A9000B984C884DF80EE80FD800C811B81AA811F
:101AA000B981CE0FD11D0FB6F894DEBF0FBECDBFEA
:101AB000ED010895A29FB001B39FC001A39F700DD7
:101AC000811D1124911DB29F700D811D1124911D46
:101AD00008950F931F93CF93DF938230910510F4F5
:101AE00082E090E0E0915A06F0915B0620E030E061
:101AF000A0E0B0E0309799F42115310509F447C012
:101B0000281B390B24303105C0F58A819B81611572
:101B1000710571F1FB0193838283FE0111C0408145
:101B200051810281138148175907F8F04817590766
:101B300099F4109761F012960C93129713961C93D8
:101B40003296CF01DF91CF911F910F9108950093AD
:101B50005A0610935B06F4CF2115310519F0421790
:101B6000530718F49A01BD01EF01DF01F801C2CF5C
:101B700090935B0680935A06D0CFFE01E20FF31FCD
:101B8000819391932250310939832883DACF2091B0
:101B9000580630915906232B41F4209102013091CF
:101BA000030130935906209358062091000130918B
:101BB00001012115310541F42DB73EB740910401D3
:101BC00050910501241B350BE0915806F091590600
:101BD000E217F307A0F42E1B3F0B2817390778F004
:101BE000AC014E5F5F4F2417350748F04E0F5F1F63
:101BF000509359064093580681939193A2CFE0E009
:101C0000F0E09FCFCF93DF930097D1F0FC013297A4
:101C100013821282A0915A06B0915B06109799F434
:101C200020813181820F931F2091580630915906EF
:101C30002817390709F066C0F0935906E093580653
:101C4000DF91CF910895ED0120E030E0CE17DF075E
:101C500008F03FC04A815B819E0141155105B9F5ED
:101C6000E901FB83EA8349915991C40FD51FEC1711
:101C7000FD0761F4808191810296840F951FE9012F
:101C800099838883828193819B838A83E0E0F0E05B
:101C900012968D919C9113970097C9F52D913C91C7
:101CA0001197CD010296820F931F20915806309113
:101CB00059062817390721F6309761F510925B060F
:101CC00010925A06B0935906A0935806B9CFEA016C
:101CD000BDCFD383C28340815181840F951FC81724
:101CE000D90761F44E5F5F4F88819981480F591F72
:101CF000518340838A819B8193838283211531059F
:101D000009F0AECFF0935B06E0935A0699CFFD0140
:101D1000DC01BECF13821282D5CF91110895815478
:101D20008A5108F4805E855A0895FB01DC01059014
:101D30000D920020E1F708954AEF53E019C0FB012E
:101D4000DC018D91019080190110D9F3990B089550
:101D5000FB01DC0101900D920020E1F70895FC01E8
:101D600001900020E9F7809590958E0F9F1F0895B0
:101D7000FA01A191B081009719F41097E1F0CD011B
:101D8000DC01CD010D90002011F4C00113C0FB0156
:101D90002191222319F02015D9F7F3CFFB012191CE
:101DA000201519F41E92119606C02223C1F70D903A
:101DB0000020A1F7D001FA01A193B0830895F8940F
:021DC000FFCF53
:101DC20000005C06200000000000B803DD024803AA
:101DD2006203540397035F77726974654D6F64659C
:101DE200456E61626C65643C30210D0A00455252B9
:101DF2004F5221200063616E6E6F74207772697496
:101E0200652100666C7573682077616974310066BC
:101E12006C75736820776169743200666C757368DB
:101E220020776169742033333300747820636F6DD7
:101E3200706C6574650000000000B106DD029A0551
:101E4200B405A605570648656C6C6F20776F726CF7
:101E520064210D0A0068656C70202020202D2070FE
:101E620072696E7420746869732068656C700D0AFB
:101E72000068656C6C6F2020202D2068656C6C6F8B
:101E820020776F726C6420746573740D0A00706D34
:101E92007420202020202D2073656E6420636F6DD6
:101EA2006D616E6420746F2048616D616D61747341
:101EB20020706D7420706F77657220636F6E74721C
:101EC2006F6C6C6572207669612072733233320DE9
:101ED2000A006C6773656C2020202D202830292091
:101EE20068672D696E203D3E2068672D6F757420EE
:101EF2002C20283129206C67203D3E2068672D6FF9
:101F02007574200D0A0072786C6273656C092D205D
:101F120028302920316B2D676E64203D3E206C678E
:101F22002D696E202C202831292072733438352DEA
:101F32007278203D3E206C672D696E200D0A007379
:101F42007461747573092D207072696E74207374D4
:101F5200617475730D0A00706D742048504F202D06
:101F620020676574206D6F6E69746F7220696E668A
:101F72006F20616E64207374617475730D0A006C56
:101F82006773656C3D2731270D0A0030006C67735B
:101F9200656C3D2730270D0A006C6773656C2069FC
:101FA2006E76616C696420706172616D65746572D0
:101FB2003A2027006C6773656C203D2000310D0AC2
:101FC20000300D0A0072786C6273656C3D27312710
:101FD2000D0A0072786C6273656C3D2730270D0A1A
:101FE2000072786C6273656C20696E76616C6964EC
:101FF20020706172616D657465723A202700727893
:102002006C62203D200068656C6C6F00706D74001E
:1020120068656C70006C6773656C0072786C6273D3
:10202200656C0073746174757300706D743A202767
:1020320000272000636865636B73756D206D69739B
:102042006D617463682100213D000D0A434D443ED9
:102052000073656E643A206E65656420312070619C
:1020620072616D657465722C2065782E672E3A2038
:1020720073656E642048504F0D0A0073656E643AB2
:1020820020737472696E67206D75737420626520A7
:102092003C2035322062797465730D0A0053656EF7
:1020A20064696E6720636F6D6D616E64207669612D
:0A20B2002072733233322E0D0A0043
:00000001FF
