:100000006DC000004EC100007DC10000ACC1000009
:10001000DBC100000AC2000039C2000068C2000053
:1000200097C2000085C0000083C0000081C00000AE
:100030007FC000007DC000007BC0000079C00000D0
:1000400078C0000075C00000BAC4000017C50000E9
:10005000ECC400006DC000006BC0000069C000006F
:1000600067C0000065C0000063C0000061C0000000
:100070005FC000005DC0000016C400004AC400005C
:1000800057C0000055C0000053C00000434D443A23
:1000900020436F6D6D616E64206E6F7420726563B6
:1000A0006F676E697A65642E00434D443E20002AD6
:1000B0002A2A204963655363696E74205253343889
:1000C0003520636F6D6D616E6420696E7465726654
:1000D000616365202A2A2A00B204670511241FBE25
:1000E000CFEFD0E1DEBFCDBF14E0A0E0B1E0ECEE99
:1000F000F9E100E00BBF02C007900D92AA33B107EF
:10010000D9F726E0AAE3B4E001C01D92A531B207F9
:10011000E1F710E0CEE6D0E004C02197FE010E9496
:10012000250BCC36D107C9F70E94A10A0C94F40C18
:1001300067CF1F920F920FB60F9211242F933F9308
:100140008F939F93AF93BF9380913D0490913E0412
:10015000A0913F04B091400430913C0429E3230F67
:100160002D3758F50596A11DB11D20933C048093B1
:100170003D0490933E04A0933F04B09340048091CB
:10018000410490914204A0914304B091440401962B
:10019000A11DB11D8093410490934204A093430498
:1001A000B0934404BF91AF919F918F913F912F9154
:1001B0000F900FBE0F901F9018952CEB230F0696F3
:1001C000A11DB11DD2CF9FB7F89440914104509129
:1001D0004204609143047091440482B706B600FE65
:1001E00006C08F3F21F04F5F5F4F6F4F7F4F9FBF24
:1001F0002227342F452F562F280F311D411D511D09
:10020000A5E1B0E00C942E0B0895CF92DF92EF920F
:10021000FF92CF93DF936B017C01D5DFEB01C1141B
:10022000D104E104F10439F4DF91CF91FF90EF9014
:10023000DF90CF900895BDD1C6DF6C1B7D0B683E6B
:10024000734068F381E0C81AD108E108F108C85189
:10025000DC4FE5CF789483B7846083BF87B7816034
:1002600087BF1EBC8EB582608EBD8FB581608FBD8D
:1002700085B5846085BD85B5806485BDEAE8F0E01C
:10028000808182608083808181608083EBE8F0E000
:10029000808181608083329A319A309A379A1AB875
:1002A00008951F920F920FB60F9211240BB60F9262
:1002B0002F933F934F935F936F937F938F939F936E
:1002C000AF93BF93EF93FF938091490490914A04B9
:1002D000892B29F0E0914904F0914A040995FF9196
:1002E000EF91BF91AF919F918F917F916F915F91AE
:1002F0004F913F912F910F900BBE0F900FBE0F901B
:100300001F9018951F920F920FB60F9211240BB6E3
:100310000F922F933F934F935F936F937F938F939E
:100320009F93AF93BF93EF93FF9380914B04909172
:100330004C04892B29F0E0914B04F0914C04099571
:10034000FF91EF91BF91AF919F918F917F916F91AD
:100350005F914F913F912F910F900BBE0F900FBE69
:100360000F901F9018951F920F920FB60F921124A5
:100370000BB60F922F933F934F935F936F937F939F
:100380008F939F93AF93BF93EF93FF9380914D040F
:1003900090914E04892B29F0E0914D04F0914E0488
:1003A0000995FF91EF91BF91AF919F918F917F91AF
:1003B0006F915F914F913F912F910F900BBE0F90D6
:1003C0000FBE0F901F9018951F920F920FB60F92AD
:1003D00011240BB60F922F933F934F935F936F931C
:1003E0007F938F939F93AF93BF93EF93FF938091EE
:1003F0004F0490915004892B29F0E0914F04F09123
:1004000050040995FF91EF91BF91AF919F918F910A
:100410007F916F915F914F913F912F910F900BBE04
:100420000F900FBE0F901F9018951F920F920FB64E
:100430000F9211240BB60F922F933F934F935F931C
:100440006F937F938F939F93AF93BF93EF93FF939C
:100450008091450490914604892B29F0E091450450
:10046000F09146040995FF91EF91BF91AF919F9153
:100470008F917F916F915F914F913F912F910F904D
:100480000BBE0F900FBE0F901F9018951F920F92EA
:100490000FB60F9211240BB60F922F933F934F93E9
:1004A0005F936F937F938F939F93AF93BF93EF93DC
:1004B000FF938091470490914804892B29F0E091A3
:1004C0004704F09148040995FF91EF91BF91AF91D6
:1004D0009F918F917F916F915F914F913F912F915C
:1004E0000F900BBE0F900FBE0F901F9018951F928C
:1004F0000F920FB60F9211240BB60F922F933F93CA
:100500004F935F936F937F938F939F93AF93BF931B
:10051000EF93FF938091510490915204892B29F01D
:10052000E0915104F09152040995FF91EF91BF9130
:10053000AF919F918F917F916F915F914F913F917B
:100540002F910F900BBE0F900FBE0F901F9018951C
:100550001F920F920FB60F9211240BB60F922F938A
:100560003F934F935F936F937F938F939F93AF933B
:10057000BF93EF93FF938091530490915404892B80
:1005800029F0E0915304F09154040995FF91EF9103
:10059000BF91AF919F918F917F916F915F914F919B
:1005A0003F912F910F900BBE0F900FBE0F901F9099
:1005B00018950895A0E0B0E0E0EEF2E00C94420B54
:1005C0006C01EB017B01E40EF51E00E010E0CE159E
:1005D000DF0561F06991D601ED91FC910190F08108
:1005E000E02DC6010995080F191FF1CFC801CDB73D
:1005F000DEB7E8E00C945E0B0F931F93CF93DF936D
:100600008C01EB01209791F0CB010E94C40CD80122
:10061000ED91FC910280F381E02DAC01BE01C80197
:100620000995DF91CF911F910F91089580E090E09F
:10063000F8CFE2CF0895DC01ED91FC910190F081BB
:10064000E02D099508950F931F93CF93DF93EC014D
:100650006DE0F1DF8C016AE0CE01EDDF800F911FCC
:10066000DF91CF911F910F9108950F931F93CF9317
:10067000DF93EC01C1DF8C01CE01E5DF800F911F1C
:10068000DF91CF911F910F910895FC01918D228DE3
:10069000892F90E0805C9F4F821B91098F7399276F
:1006A0000895FC01918D828D981731F0828DE80FAD
:1006B000F11D858D90E008958FEF9FEF0895FC0167
:1006C000918D828D981761F0828DDF01A80FB11D89
:1006D0005D968C91928D9F5F9F73928F90E00895AD
:1006E0008FEF9FEF0895FC01848DDF01A80FB11DEE
:1006F000A35ABF4F2C91848D90E001968F73992758
:10070000848FA689B7892C93A089B1898C91806444
:100710008C93938D848D981306C00288F389E02D05
:1007200080818F7D80830895CF93DF93EC01888D46
:10073000882351F0EA89FB89808185FD08C0A8895A
:10074000B9898C9186FF03C0DF91CF9108950FB6D0
:1007500007FCF2CF808185FFEFCFA889B9898C9102
:1007600085FFEACFCE01BFDFE5CFEF92FF920F9377
:100770001F93CF93DF93EC01F62E9B8D8C8D9813F6
:1007800005C0E889F989808185FD2AC00B8D10E0BC
:100790000F5F1F4F0F731127E02E8C8DE8120BC0D7
:1007A0000FB607FCFACFE889F989808185FFF5CF7C
:1007B000CE0199DFF2CF8B8DFE01E80FF11DE35AD8
:1007C000FF4FF0820B8FEA89FB89808180628083F2
:1007D00081E0888F81E090E0CDB7DEB7E6E070C7BA
:1007E000EE89FF896083E889F9898081806480834C
:1007F000F1CFCF92DF92EF92FF921F93CF93DF93CF
:10080000EC016A017B01122F60E070E18EE090E064
:10081000A7019601F8D62150310941095109569591
:10082000479537952795E889F98982E080832115D6
:1008300080E1380790F0E889F989108260E078E07B
:1008400087E090E0A7019601DED6215031094109E9
:1008500051095695479537952795EC85FD85308349
:10086000EE85FF852083188EEC89FD891083EA8947
:10087000FB89808180618083EA89FB89808188602F
:100880008083EA89FB89808180688083EA89FB898B
:1008900080818F7D8083DF91CF911F91FF90EF90BA
:1008A000DF90CF9008951F920F920FB60F921124F0
:1008B0000BB60F922F938F939F93EF93FF93E0913B
:1008C0006504F09166048081E0916B04F0916C0402
:1008D00082FD1DC0908180916E048F5F8F73209187
:1008E0006F04821741F0E0916E04F0E0EB5AFB4F89
:1008F000958F80936E04FF91EF919F918F912F912F
:100900000F900BBE0F900FBE0F901F901895808117
:10091000F2CF1F920F920FB60F9211240BB60F92C7
:100920002F933F934F935F936F937F938F939F93F7
:10093000AF93BF93EF93FF9385E594E0D4DEFF91EF
:10094000EF91BF91AF919F918F917F916F915F9147
:100950004F913F912F910F900BBE0F900FBE0F90B4
:100960001F901895E5E5F4E01382128288EE93E07B
:10097000A0E0B0E084839583A683B7838AE091E00A
:100980009183808388E990E09587848789E990E066
:10099000978786878BE990E0918B808B8AE990E03E
:1009A000938B828B8DE990E0958B848B8CE990E022
:1009B000978B868B118E128E138E148E08951F9234
:1009C0000F920FB60F9211240BB60F922F938F93A5
:1009D0009F93EF93FF93E0910205F09103058081CF
:1009E000E0910805F091090582FD1DC0908180917C
:1009F0000D058F5F8F7320910E05821741F0E091F6
:100A00000D05F0E0EE50FB4F978F80930D05FF91A1
:100A1000EF919F918F912F910F900BBE0F900FBE72
:100A20000F901F9018958081F2CF1F920F920FB6F2
:100A30000F9211240BB60F922F933F934F935F9316
:100A40006F937F938F939F93AF93BF93EF93FF9396
:100A500082EF94E0C2D1FF91EF91BF91AF919F914E
:100A60008F917F916F915F914F913F912F910F9057
:100A70000BBE0F900FBE0F901F9018951F920F92F4
:100A80000FB60F9211240BB60F922F933F934F93F3
:100A90005F936F937F938F939F93AF93BF93EF93E6
:100AA000FF9382EF94E097D1FF91EF91BF91AF91C7
:100AB0009F918F917F916F915F914F913F912F9176
:100AC0000F900BBE0F900FBE0F901F901895E2EF86
:100AD000F4E01382128288EE93E0A0E0B0E0848319
:100AE0009583A683B7838AE791E09183808380E929
:100AF00090E09587848789E290E0978786878BE2EC
:100B000090E0918B808B8AE290E0938B828B85E9D9
:100B100090E0958B848B8CE290E0978B868B138E84
:100B2000148E158E168E0895FC01938D248D892FB9
:100B300090E0805C9F4F821B91098F7399270895E5
:100B4000FC01938D848D981731F0848DE80FF11D91
:100B5000878D90E008958FEF9FEF0895FC01938DAE
:100B6000848D981761F0848DDF01A80FB11D5F9609
:100B70008C91948D9F5F9F73948F90E008958FEF79
:100B80009FEF0895CF93DF93EC01298D3A8D898DE6
:100B90009A8D662369F0019697FF0CC066E171E0BB
:100BA00085E594E029DD1A8E198EDF91CF910895A5
:100BB0000197F2CF149A21153105B9F481309105CE
:100BC00009F03CC09A8F898F1C9AEA89FB89808141
:100BD0008F7E8083EA89FB8980818860808362E0E0
:100BE00070E080E090E011DBE0CF2130310531F59D
:100BF000009721F5E881F9810284F385E02DCE018B
:100C0000099562E070E080E090E0FFDAE889F98918
:100C1000808186FD05C06DE271E085E594E0ECDC45
:100C20001A8E198EEA89FB89808180618083EA8926
:100C3000FB898081877F80831C98B7CF9A8F898FAB
:100C4000B4CF61E09FCF60E09DCFFC01958D868D94
:100C50009817F1F0868DDF01A80FB11DA15ABF4F83
:100C60002C91868D90E001968F739927868FA689A7
:100C7000B7892C93A089B1898C9180648C93028868
:100C8000F389E02D80818062808381E090E0089587
:100C90000288F389E02D80818F7D80838FEF9FEF25
:100CA0000895CF93DF93EC01898D9A8D892B41F4C0
:100CB00065E371E085E594E09FDCDF91CF910895D5
:100CC000888D8823D1F39D8D8E8D981739F10FB6BD
:100CD00007FCF9CFEA89FB89808185FFF4CFE88999
:100CE000F989808185FFEFCFCE01AFDF63E471E04A
:100CF00085E594E081DCE7CF0FB607FC11C0808169
:100D000085FF0EC0A889B9898C9185FF09C0CE01E5
:100D10009CDF6FE471E085E594E06EDCEA89FB8995
:100D2000808185FDE9CFA889B9898C9186FFE4CFC0
:100D30008C9185FFE1CFEA89FB89808185FD05C023
:100D4000E889F989808186FDB8CF6BE571E085E59A
:100D500094E052DCF0CFEF92FF920F931F93CF936A
:100D6000DF93EC01F62E898D9A8D892B59F465E37A
:100D700071E085E594E040DC80E090E0CDB7DEB73F
:100D8000E6E09EC40D8D10E00F5F1F4F0F7311271B
:100D9000E02E8E8DE8120BC00FB607FCFACFE88963
:100DA000F989808185FFF5CFCE014FDFF2CF8D8DA0
:100DB000FE01E80FF11DE15AFF4FF0820D8FEA8925
:100DC000FB89808185FD02C0CE013FDF81E0888FF5
:100DD00081E090E0D3CF39CF08956AE671E085E5F0
:100DE00094E00ACCCF92DF92EF92FF921F93CF93C1
:100DF000DF93EC016A017B01122F60E070E18EE06D
:100E000090E0A7019601FFD3215031094109510912
:100E10005695479537952795E889F98982E080832B
:100E2000211580E1380790F0E889F989108260E0A7
:100E300078E087E090E0A7019601E5D321503109E1
:100E4000410951095695479537952795EC85FD85BC
:100E50003083EE85FF852083188EEC89FD89108311
:100E6000149A61E0CE018EDE60E0CE018BDEEA896D
:100E7000FB89808180618083EA89FB898081877F0B
:100E80008083EA89FB89808180688083EA89FB8985
:100E900080818F7D80831A8E198EDF91CF911F9173
:100EA000FF90EF90DF90CF900895A4E6B0E0EAE5E0
:100EB000F7E0EEC382EF94E0C6DB6FEA70E0CE01AC
:100EC000019648D5BE016F5F7F4F82EF94E0CDDB86
:100ED00069EA70E0CE0101963DD5BE016F5F7F4F9C
:100EE00082EF94E0A6DBCC59DF4FE2E0EDC3A0EA4D
:100EF000B0E0ECE7F7E0C6C363E371E032D59E01F2
:100F00002B593F4FD9018D939D937D0101E010E056
:100F1000D02EC12E63E371E080E090E022D5F7018E
:100F2000819391937F010E31110541F50091940554
:100F300010919505A796EEACFFACA797011511058A
:100F400039F1D8016D917C91C7010ED5892BE1F45F
:100F500082EF94E076DED8011296ED91FC91139722
:100F6000BE016B597F4F8D2D9C2D09959EDF82EF21
:100F700094E069DEC056DF4FE8E0A0C30F5F1F4F6B
:100F8000892B09F0C5CFD2CFF80104811581D6CFC6
:100F900082EF94E056DE6CE870E0CE010196DAD480
:100FA000BE016F5F7F4F82EF94E05FDBDFCFAB016D
:100FB000BC018AE995E09093990580939805109279
:100FC0009705109296051092930526E082EF94E023
:100FD00009CFEF92FF920F931F93CF93DF938C0172
:100FE0007B0186E090E08AD39093950580939405E9
:100FF000C801CAD4019682D3EC01B801BED4C8019D
:10100000C3D48C0F9D1FFC011082E0919405F091D8
:101010009505D183C083F382E282809196059091F9
:10102000970595838483F0939705E0939605CDB754
:10103000DEB7E6E045C3CF93DF9382EF94E08EDD29
:10104000EC01982F80919305811155C0CE0199270D
:101050008D309105F1F08A3C9105B9F00897A9F51A
:1010600082EF94E0EEDD6C2F82EF94E0E4DA82EF21
:1010700094E0E9DD809198059091990525E08A3901
:10108000920701F1F8F0019719C081E08093930570
:1010900019C0E0919805F0919905108282EF94E0D3
:1010A000D0DD6FE872E082EF94E0C3DA8AE995E080
:1010B0001EDF82EF94E0C7DD8AE995E09093990501
:1010C00080939805DF91CF91089582EF94E0B9DD88
:1010D0006C2F82EF94E0AFDA82EF94E0B4DDE09120
:1010E0009805F0919905CF01019690939905809309
:1010F0009805C083E7CF833061F170F48130F9F057
:10110000823001F7C093920510929105DD27C83710
:10111000D105ECF483E0BACF853031F1D0F08630E0
:1011200089F69C3A79F61092930586E891E02CD4E2
:10113000AC0166E871E085E594E03CDAC3CF9A3C07
:1011400009F4A4CF9E3F09F0BDCF82E09FCF84E099
:101150009DCF809191058F5F80939105909192052D
:101160008913B0CF85E092CF9F3E09F0ABCF86E0E8
:101170008DCF82EF94E0D8DC892B11F05CDFF9CFC2
:10118000089590E0DFD39FE9980F963010F48755CB
:1011900008959FEB980F963010F48C530895805368
:1011A0008A3008F08FEF089569E971E082EF94E0EA
:1011B0005CCA68EA71E082EF94E01EDA64EC71E0E8
:1011C00082EF94E019DA61EE71E082EF94E014DAD4
:1011D00065E272E082EF94E00FDA69E572E082EF97
:1011E00094E00ADA62E972E082EF94E005DA6AEAF2
:1011F00072E082EF94E000CA0F931F93CF93DF93C6
:10120000EB011816190684F50A811B81B8018DE4DB
:1012100091E0AAD3892B59F462ED72E082EF94E059
:10122000EBD91F9ADF91CF911F910F910895B801CB
:101230008EED92E099D3892B39F460EE72E082EF63
:1012400094E0DAD91F98EECF6CEE72E082EF94E072
:10125000D3D96A817B8182EF94E0CED960E373E0D9
:1012600082EF94E0C9D9DECF67E073E082EF94E0CB
:10127000C3D91F9B03C060E173E0F2CF64E173E068
:10128000EFCF0F931F93CF93DF93EB01181619063F
:1012900084F50A811B81B8018DE491E065D3892B27
:1012A00059F468E173E082EF94E0A6D91D9ADF91CA
:1012B000CF911F910F910895B8018EED92E054D314
:1012C000892B39F466E273E082EF94E095D91D989A
:1012D000EECF64E373E082EF94E08ED96A817B8184
:1012E00082EF94E089D960E373E082EF94E084D9DF
:1012F000DECF61E573E082EF94E07ED91D9B03C0F1
:1013000060E173E0F2CF64E173E0EFCF67E073E098
:1013100082EF94E071D91F9B11C060E173E082EF0E
:1013200094E06AD961E573E082EF94E065D91D9B92
:1013300008C060E173E082EF94E05EC964E173E0AD
:10134000EECF64E173E0F7CFDC01ED91FC91019009
:10135000F081E02D099508958F708A3010F0895C36
:101360000895805D0895CF93DF93EC01862F62305E
:1013700041F491E098AF1CAA6EAB80E0DF91CF9171
:10138000089598AD9130B1F49EA9960F9EAB9CA99B
:10139000633019F49DAB88AFF0CFFE01E90FF11D6A
:1013A000608381E0890F8CAB833338F392E098AF90
:1013B0008DABE3CF923031F49EA9960F9EAB633094
:1013C000E1F6E9CF933031F4DCDE8295807F8FAB9C
:1013D00084E0E1CF943031F4D4DE9FA9892B8FAB28
:1013E00085E0D9CF953049F618AE81E0C7CF26E227
:1013F00040E056E960E070E085E594E0FAD960E805
:1014000075E280E090E0D3DD64ED78E089E593E07B
:10141000E0DD67EA7AE08FE593E0DBDD69ED78E017
:1014200083E693E0D6DD6CEF78E088E693E0D1DDEB
:1014300061E479E08EE693E0CCDD66E879E086E76A
:1014400093E0C7DD82B1886B82B981E081BB82EF16
:1014500094E0F7DB6DE773E082EF94E006D982EF6A
:1014600094E0F1DB10920E061092100610920F0617
:1014700008957FDE85E594E008D9892B09F460C0E2
:1014800085E594E01CD9682F86ED95E06CDF882314
:1014900009F456C082EF94E0D4DB6FE872E082EF8B
:1014A00094E0AAD86AEA73E082EF94E0A5D840916C
:1014B0000B0650E066ED75E082EF94E07BD861EBBF
:1014C00073E082EF94E098D890910C0680910D061D
:1014D000981771F164EB73E082EF94E08DD88091FE
:1014E0000C0682958F7038DF682F70E082EF94E0F1
:1014F0002BDF80910C0630DF682F70E082EF94E0E4
:1015000023DF67EC73E082EF94E076D880910D06DC
:1015100082958F7021DF682F70E082EF94E014DFF6
:1015200080910D0619DF682F70E082EF94E00CDFE8
:101530006AEC73E082EF94E05FD882EF94E083CBB3
:1015400008950E942A0153DF789493DFFECFA4E62A
:10155000B0E0ECEAFAE096C097FF09C061ED73E0F5
:1015600082EF94E082D8CC59DF4FE8E0A7C0FB01BE
:10157000E280F380C70108D28C01C4971CF06BEFA6
:1015800073E0EECF82E08983AE014F5F5F4FD701FA
:101590006A014F5F5F4F9D012E193F0920173107E8
:1015A00044F49D019D91FA019083F9019081890F86
:1015B000F0CFFE01E00FF11F93E0928393E0F92E4C
:1015C000F80E8F2D82958F70C7DEFE01E00FF11FA0
:1015D00083838F2D8F70C0DEFE01E00FF11F8483A7
:1015E000FE01E00FF11F8DE085836DE174E082EF75
:1015F00094E03BD8A8014B5F5F4FB60185E594E0CE
:101600000E94DA02B0CFA1E21A2EAA1BBB1BFD0179
:101610000DC0AA1FBB1FEE1FFF1FA217B307E407D1
:10162000F50720F0A21BB30BE40BF50B661F771F29
:10163000881F991F1A9469F7609570958095909509
:101640009B01AC01BD01CF010895EE0FFF1F0024E7
:10165000001C0BBE0790F691E02D099440D0A59F89
:10166000900DB49F900DA49F800D911D112408959D
:101670002F923F924F925F926F927F928F929F92A2
:10168000AF92BF92CF92DF92EF92FF920F931F9390
:10169000CF93DF93CDB7DEB7CA1BDB0B0FB6F89441
:1016A000DEBF0FBECDBF09942A88398848885F8481
:1016B0006E847D848C849B84AA84B984C884DF80F2
:1016C000EE80FD800C811B81AA81B981CE0FD11DD6
:1016D0000FB6F894DEBF0FBECDBFED010895A29FF7
:1016E000B001B39FC001A39F700D811D1124911DF6
:1016F000B29F700D811D1124911D08950F931F93AA
:10170000CF93DF938230910510F482E090E0E09176
:101710001306F091140620E030E0A0E0B0E030972E
:1017200099F42115310509F447C0281B390B2430E1
:101730003105C0F58A819B816115710571F1FB014D
:1017400093838283FE0111C0408151810281138104
:1017500048175907F8F04817590799F4109761F09E
:1017600012960C93129713961C933296CF01DF9129
:10177000CF911F910F9108950093130610931406B3
:10178000F4CF2115310519F04217530718F49A01C7
:10179000BD01EF01DF01F801C2CF909314068093E1
:1017A0001306D0CFFE01E20FF31F819391932250D5
:1017B000310939832883DACF20911106309112063E
:1017C000232B41F420910201309103013093120642
:1017D000209311062091000130910101211531055E
:1017E00041F42DB73EB74091040150910501241BEF
:1017F000350BE0911106F0911206E217F307A0F401
:101800002E1B3F0B2817390778F0AC014E5F5F4F56
:101810002417350748F04E0F5F1F50931206409370
:10182000110681939193A2CFE0E0F0E09FCFCF9398
:10183000DF930097D1F0FC01329713821282A091BE
:101840001306B0911406109799F420813181820F0C
:10185000931F20911106309112062817390709F0BD
:1018600066C0F0931206E0931106DF91CF910895C0
:10187000ED0120E030E0CE17DF0708F03FC04A81DD
:101880005B819E0141155105B9F5E901FB83EA83AE
:1018900049915991C40FD51FEC17FD0761F4808160
:1018A00091810296840F951FE90199838883828133
:1018B00093819B838A83E0E0F0E012968D919C9166
:1018C00013970097C9F52D913C911197CD01029680
:1018D000820F931F209111063091120628173907A5
:1018E00021F6309761F51092140610921306B0930A
:1018F0001206A0931106B9CFEA01BDCFD383C283EC
:1019000040815181840F951FC817D90761F44E5F3C
:101910005F4F88819981480F591F518340838A8185
:101920009B81938382832115310509F0AECFF0931B
:101930001406E093130699CFFD01DC01BECF13829C
:101940001282D5CF9111089581548A5108F4805E96
:10195000855A0895FB01DC0105900D920020E1F706
:1019600008954AE354E019C0FB01DC018D91019018
:1019700080190110D9F3990B0895FB01DC01019046
:101980000D920020E1F70895FC0101900020E9F795
:10199000809590958E0F9F1F0895FA01A191B081B7
:1019A000009719F41097E1F0CD01DC01CD010D9005
:1019B000002011F4C00113C0FB012191222319F072
:1019C0002015D9F7F3CFFB012191201519F41E92B0
:1019D000119606C02223C1F70D900020A1F7D00177
:0C19E000FA01A193B0830895F894FFCFA2
:1019EC0000001506200000000000B503DA024503D4
:1019FC005F03510394035F77726974654D6F64657F
:101A0C00456E61626C65643C30210D0A0045525292
:101A1C004F5221200063616E6E6F7420777269746F
:101A2C00652100666C757368207761697431006696
:101A3C006C75736820776169743200666C757368B5
:101A4C0020776169742033333300747820636F6DB1
:101A5C00706C6574650000000000AB06DA0294053A
:101A6C00AE05A00551065061636B65742052656329
:101A7C006569766564210D0A0048656C6C6F20778A
:101A8C006F726C64210D0A0068656C702020202038
:101A9C002D207072696E7420746869732068656C8F
:101AAC00700D0A0068656C6C6F2020202D20686515
:101ABC006C6C6F20776F726C6420746573740D0A94
:101ACC0000706D7420202020202D2073656E642002
:101ADC00636F6D6D616E6420746F2048616D616D14
:101AEC0061747320706D7420706F77657220636FF2
:101AFC006E74726F6C6C65722076696120727332D1
:101B0C0033320D0A006C6773656C2020202D202861
:101B1C0030292068672D696E203D3E2068672D6F47
:101B2C007574202C20283129206C67203D3E2068BC
:101B3C00672D6F7574200D0A0072786C6273656C7A
:101B4C00092D2028302920316B2D676E64203D3EF5
:101B5C00206C672D696E202C20283129207273345B
:101B6C0038352D7278203D3E206C672D696E200D26
:101B7C000A00737461747573092D207072696E7428
:101B8C00207374617475730D0A00706D7420485065
:101B9C004F202D20676574206D6F6E69746F7220F5
:101BAC00696E666F20616E64207374617475730D59
:101BBC000A006C6773656C3D2731270D0A003000F5
:101BCC006C6773656C3D2730270D0A006C67736575
:101BDC006C20696E76616C696420706172616D65F0
:101BEC007465723A2027006C6773656C203D200089
:101BFC00310D0A00300D0A0072786C6273656C3D11
:101C0C002731270D0A0072786C6273656C3D2730A2
:101C1C00270D0A0072786C6273656C20696E7661B0
:101C2C006C696420706172616D657465723A20270D
:101C3C000072786C62203D200068656C6C6F0070DF
:101C4C006D740068656C70006C6773656C007278FD
:101C5C006C6273656C00737461747573002A2A2A44
:101C6C00204963657363696E742047444220417058
:101C7C00706C69636174696F6E202D20626F6F7474
:101C8C00696E67202A2A2A0D0A00706D743A202783
:101C9C0000272000636865636B73756D206D697335
:101CAC006D617463682100213D000D0A434D443E73
:101CBC000073656E643A206E656564203120706136
:101CCC0072616D657465722C2065782E672E3A20D2
:101CDC0073656E642048504F0D0A0073656E643A4C
:101CEC0020737472696E67206D7573742062652041
:101CFC003C2035322062797465730D0A0053656E91
:101D0C0064696E6720636F6D6D616E6420766961C6
:0A1D1C002072733233322E0D0A00DC
:00000001FF
