:1000000070C0000086C10000B5C10000E4C100005E
:1000100013C2000042C2000071C20000A0C2000072
:10002000CFC200008DC000008BC0000089C000005E
:1000300087C0000085C0000083C0000081C00000B0
:1000400080C000007DC0000068C50000C9C5000078
:100050009EC5000075C0000073C0000071C00000A4
:100060006FC000006DC000006BC0000069C00000E0
:1000700067C0000065C00000BAC40000F2C4000000
:100080005FC000005DC000005BC00000434D443A0B
:1000900020436F6D6D616E64206E6F7420726563B6
:1000A0006F676E697A65642E002A2A2A2049636583
:1000B0005363696E742052533438352076312E31B3
:1000C00020636F6D6D616E6420696E746572666128
:1000D0006365202A2A2A00434D443E2000005A0529
:1000E000190611241FBECFEFD0E1DEBFCDBF14E053
:1000F000A0E0B1E0E6EBF6E200E00BBF02C0079043
:100100000D92A833B107D9F716E0A8E3B4E001C017
:100110001D92AA39B107E1F710E000E0C2EED0E08D
:1001200040E006C022974109FE014BBF0E94CE115C
:10013000CE3DD1074007B1F70E9415110C94591319
:100140005FCF1F920F920FB60F9211242F933F9300
:100150004F935F936F937F938F939F93AF93BF93CF
:1001600020913E0430913F0440914004509141045D
:1001700070914204DA01C9010596A11DB11D672FD6
:10018000675C6D3730F06D57DA01C9010696A11D25
:10019000B11D6093420480933E0490933F04A0936A
:1001A0004004B093410480913A0490913B04A091A3
:1001B0003C04B0913D040196A11DB11D80933A0409
:1001C00090933B04A0933C04B0933D04BF91AF9146
:1001D0009F918F917F916F915F914F913F912F915F
:1001E0000F900FBE0F901F901895EF92FF920F93F4
:1001F0001F93CF93DF937B018C013FB7F8946091FD
:100200003A0470913B0480913C0490913D0422B7E4
:1002100006B600FE06C02F3F21F06F5F7F4F8F4F65
:100220009F4F3FBFE114F1040105110509F445C0DA
:10023000982F872F762F6627620F711D811D911DC4
:1002400025E130E040E050E00E945611EB01E9D199
:100250003FB7F89460913A0470913B0480913C045C
:1002600090913D0422B706B600FE06C02F3F21F054
:100270006F5F7F4F8F4F9F4F3FBF982F872F762FF6
:100280006627620F711D811D911D25E130E040E060
:1002900050E00E9456116C1B7D0B83E0683E78078E
:1002A00038F00894E108F10801091109C851DC4F40
:1002B000E114F1040105110551F6CDB7DEB7E6E012
:1002C0000C94BF11789483B7846083BF87B7816033
:1002D00087BF1EBC8EB582608EBD8FB581608FBD1D
:1002E00085B5846085BD85B5806485BDEAE8F0E0AC
:1002F000808182608083808181608083EBE8F0E090
:10030000808181608083329A319A309A379A1AB804
:1003100008951F920F920FB60F920BB60F921124F1
:100320002F933F934F935F936F937F938F939F93FD
:10033000AF93BF93EF93FF9380914704909148044C
:10034000009729F0E0914704F09148040995FF9146
:10035000EF91BF91AF919F918F917F916F915F913D
:100360004F913F912F910F900BBE0F900FBE0F90AA
:100370001F9018951F920F920FB60F920BB60F9207
:1003800011242F933F934F935F936F937F938F939A
:100390009F93AF93BF93EF93FF9380914904909104
:1003A0004A04009729F0E0914904F0914A04099524
:1003B000FF91EF91BF91AF919F918F917F916F913D
:1003C0005F914F913F912F910F900BBE0F900FBEF9
:1003D0000F901F9018951F920F920FB60F920BB6A9
:1003E0000F9211242F933F934F935F936F937F93BB
:1003F0008F939F93AF93BF93EF93FF9380914B04A1
:1004000090914C04009729F0E0914B04F0914C043A
:100410000995FF91EF91BF91AF919F918F917F913E
:100420006F915F914F913F912F910F900BBE0F9065
:100430000FBE0F901F9018951F920F920FB60F923C
:100440000BB60F9211242F933F934F935F936F93AB
:100450007F938F939F93AF93BF93EF93FF9380917D
:100460004D0490914E04009729F0E0914D04F091D5
:100470004E040995FF91EF91BF91AF919F918F919C
:100480007F916F915F914F913F912F910F900BBE94
:100490000F900FBE0F901F9018951F920F920FB6DE
:1004A0000F920BB60F9211242F933F934F935F93AC
:1004B0006F937F938F939F93AF93BF93EF93FF932C
:1004C0008091430490914404009729F0E091430403
:1004D000F09144040995FF91EF91BF91AF919F91E5
:1004E0008F917F916F915F914F913F912F910F90DD
:1004F0000BBE0F900FBE0F901F9018951F920F927A
:100500000FB60F920BB60F9211242F933F934F9378
:100510005F936F937F938F939F93AF93BF93EF936B
:10052000FF938091450490914604009729F0E09153
:100530004504F09146040995FF91EF91BF91AF9169
:100540009F918F917F916F915F914F913F912F91EB
:100550000F900BBE0F900FBE0F901F9018951F921B
:100560000F920FB60F920BB60F9211242F933F9359
:100570004F935F936F937F938F939F93AF93BF93AB
:10058000EF93FF9380914F0490915004009729F0CE
:10059000E0914F04F09150040995FF91EF91BF91C4
:1005A000AF919F918F917F916F915F914F913F910B
:1005B0002F910F900BBE0F900FBE0F901F901895AC
:1005C0001F920F920FB60F920BB60F9211242F931A
:1005D0003F934F935F936F937F938F939F93AF93CB
:1005E000BF93EF93FF938091510490915204009731
:1005F00029F0E0915104F09152040995FF91EF9197
:10060000BF91AF919F918F917F916F915F914F912A
:100610003F912F910F900BBE0F900FBE0F901F9028
:1006200018950895A0E0B0E0E8E1F3E00C94A11182
:100630006C017B01EA012097B9F000E010E0D701DE
:100640006D917D01D601ED91FC910190F081E02D3D
:10065000C6010995080F191F219789F7C801CDB761
:10066000DEB7E8E00C94BD1100E010E0F7CF0F9387
:100670001F93CF93DF93EC018B016115710599F006
:10068000CB010E942913AC01E881F9810280F3813A
:10069000E02DCE01B80109959C01C901DF91CF91F0
:1006A0001F910F91089520E030E0C901DF91CF91B3
:1006B0001F910F910895DC01ED91FC910190F08163
:1006C000E02D099508950F931F93CF93DF93EC01CD
:1006D000E881F9810190F081E02D6DE009958C01B0
:1006E000E881F9810190F081E02DCE016AE0099561
:1006F000080F191FC801DF91CF911F910F91089525
:10070000EF92FF920F931F93CF93DF93EC018B0136
:100710006115710541F1CB010E942913AC01E881FB
:10072000F9810280F381E02DCE01B80109957C01A9
:10073000E881F9810190F081E02DCE016DE009950D
:100740008C01E881F9810190F081E02DCE016AE011
:100750000995080F191F0E0D1F1DC801CDB7DEB773
:10076000E6E00C94BF11EE24FF24E2CFFC01218DC2
:10077000828D30E0205C3F4F281B31092F73307091
:10078000C9010895FC01918D828D981739F0828DF1
:10079000E80FF11D258D30E0C90108952FEF3FEFDF
:1007A000C9010895FC01918D828D981771F0828D99
:1007B000DF01A80FB11D5D962C915D97828D8F5F33
:1007C0008F73828F30E0C90108952FEF3FEFC90189
:1007D0000895CF93DF93EC01888D882391F1EA8906
:1007E000FB89A889B989808185FF28C00FB607FCDD
:1007F000FACF808185FFF7CF8C9185FFF4CF8C8D68
:10080000FE01E80FF11DE35AFF4F20818C8D90E02F
:1008100001968F7390708C8FEE89FF892083E88911
:10082000F9898081806480839B8D8C8D9817B9F6BF
:10083000EA89FB8980818F7D8083D1CF8C9186FF6F
:10084000D5CFDF91CF910895FC01938D848D9817BA
:1008500009F43FC0238D2F5F2F73848D281739F53E
:100860000FB607FCFACFA089B1898C9185FFF5CF2F
:10087000848DDF01A80FB11DA35ABF4F3C91848D19
:1008800090E001968F739070848FA689B7893C930E
:10089000A089B1898C9180648C93938D848D9817F5
:1008A000E1F6A289B3898C918F7D8C93D6CF838D0D
:1008B000DF01A80FB11DA35ABF4F6C93238FA289EC
:1008C000B3898C9180628C9381E0808F81E090E08D
:1008D0000895A089B1898C9185FFBCCFA689B7897D
:1008E0006C930088F189E02D80818064808381E0B1
:1008F00090E00895FC01848DDF01A80FB11DA35A7B
:10090000BF4F2C91848D90E001968F739070848FEF
:10091000A689B7892C93A089B1898C9180648C9326
:10092000938D848D981308950288F389E02D80813A
:100930008F7D80830895CF92DF92EF92FF921F9375
:10094000CF93DF93EC016A017B01122F60E070E12D
:100950008EE090E0A70196010E9475112150304071
:10096000404050405695479537952795E889F98935
:1009700082E0808380E12030380798F0E889F989A7
:10098000108260E078E087E090E0A70196010E9485
:10099000751121503040404050405695479537954D
:1009A0002795EC85FD853083EE85FF852083188EA5
:1009B000EC89FD891083EA89FB89808180618083CD
:1009C000EA89FB89808188608083EA89FB8980814C
:1009D00080688083EA89FB8980818F7D8083DF91B5
:1009E000CF911F91FF90EF90DF90CF9008951F92CD
:1009F0000F920FB60F920BB60F9211242F938F9375
:100A00009F93EF93FF93E0916304F09164048081DE
:100A100082FD21C0E0916904F0916A0420818091F7
:100A20006C048F5F8F7390916D04891741F0E09192
:100A30006C04F0E0ED5AFB4F258F80936C04FF911E
:100A4000EF919F918F912F910F900BBE0F900FBE42
:100A50000F901F901895E0916904F0916A048081CD
:100A6000EECF1F920F920FB60F920BB60F9211247A
:100A70002F933F934F935F936F937F938F939F93A6
:100A8000AF93BF93EF93FF9383E594E033DFFF9140
:100A9000EF91BF91AF919F918F917F916F915F91F6
:100AA0004F913F912F910F900BBE0F900FBE0F9063
:100AB0001F901895109256041092550488EE93E0FA
:100AC000A0E0B0E08093570490935804A093590499
:100AD000B0935A04E5E5F4E08BE194E092938293BD
:100AE00088E990E09587848789E990E097878687F1
:100AF0008BE990E0918B808B8AE990E0938B828BDD
:100B00008DE990E0958B848B8CE990E0978B868BB8
:100B1000118E128E138E148E08951F920F920FB69F
:100B20000F920BB60F9211242F938F939F93EF93F5
:100B3000FF93E0910005F0910105808182FD21C0C5
:100B4000E0910605F0910705208180910B058F5FEC
:100B50008F7390910C05891741F0E0910B05F0E03F
:100B6000E051FB4F278F80930B05FF91EF919F91F1
:100B70008F912F910F900BBE0F900FBE0F901F9073
:100B80001895E0910605F09107058081EECF1F9240
:100B90000F920FB60F920BB60F9211242F933F9323
:100BA0004F935F936F937F938F939F93AF93BF9375
:100BB000EF93FF9380EF94E0A5D2FF91EF91BF9167
:100BC000AF919F918F917F916F915F914F913F91E5
:100BD0002F910F900BBE0F900FBE0F901F90189586
:100BE0001F920F920FB60F920BB60F9211242F93F4
:100BF0003F934F935F936F937F938F939F93AF93A5
:100C0000BF93EF93FF9380EF94E054D2FF91EF9165
:100C1000BF91AF919F918F917F916F915F914F9114
:100C20003F912F910F900BBE0F900FBE0F901F9012
:100C300018951092F3041092F20488EE93E0A0E06D
:100C4000B0E08093F4049093F504A093F604B0937D
:100C5000F704E2EFF4E08BE294E09293829380E970
:100C600090E09587848789E290E0978786878BE27A
:100C700090E0918B808B8AE290E0938B828B85E968
:100C800090E0958B848B8CE290E0978B868B138E13
:100C9000148E158E168E0895FC01238D848D30E000
:100CA000205C3F4F281B31092F733070C901089514
:100CB000FC01938D848D981739F0848DE80FF11D18
:100CC000278D30E0C90108952FEF3FEFC901089546
:100CD000FC01938D848D981771F0848DDF01A80F2E
:100CE000B11D5F962C915F97848D8F5F8F73848F7A
:100CF00030E0C90108952FEF3FEFC9010895CF9368
:100D0000DF93EC01898D9A8D009709F4B5C0888D29
:100D1000882309F4AEC0EA89FB89A889B9899D8D29
:100D20008E8D981709F46EC00FB607FCF8CF80813E
:100D300085FFF5CF8C9185FFF2CF9D8D8E8D981715
:100D400009F4AEC08E8DFE01E80FF11DE15AFF4F90
:100D500020818E8D90E001968F7390708E8FEE893A
:100D6000FF892083E889F989808180648083EA890A
:100D7000FB898081806280838EE091E00E9429134C
:100D8000AC01E0915304F09154040280F381E02D12
:100D900083E594E06EE071E00995BDCF9D8D8E8D69
:100DA000981709F481C08E8DFE01E80FF11DE15AFC
:100DB000FF4F20818E8D90E001968F7390708E8F03
:100DC000EE89FF892083E889F989808180648083A6
:100DD000EA89FB898081806280838AE191E00E94B8
:100DE0002913AC01E0915304F09154040280F38183
:100DF000E02D83E594E06AE171E00995EA89FB89D9
:100E0000A889B989CF01208125FF0DC00FB607FC45
:100E1000F9CF808185FFF6CF8C9185FDBFCFCF01C3
:100E2000208125FDF3CF2C9126FFF0CF2C9125FFBB
:100E3000EDCFFC01808185FF17C086E291E00E9422
:100E40002913AC01E0915304F09154040280F38122
:100E5000E02D83E594E066E271E009958A899B893B
:100E6000FC01808185FDE9CFE889F989808186FFD1
:100E7000E4CFDF91CF91089580E091E00E942913A3
:100E8000AC01E0915304F09154040280F381E02D11
:100E900083E594E060E071E00995DF91CF910895DA
:100EA00080818F7D808368CF80818F7D808395CF87
:100EB000FC01818D928D009709F461C0258D2F5F13
:100EC0002F7303C00FB607FE16C0868D2817D1F307
:100ED000858DDF01A80FB11DA15ABF4F6C93258FDF
:100EE000A289B3898C9185FF2BC081E0808F21E09E
:100EF00030E0C9010895A089B1898C9185FFE5CFC3
:100F0000958D868D981709F453C0868DDF01A80F43
:100F1000B11DA15ABF4F3C91868D90E001968F7311
:100F20009070868FA689B7893C93A089B1898C91EE
:100F300080648C93A289B3898C9180628C93C5CF95
:100F4000958D868D981781F1868DDF01A80FB11DD3
:100F5000A15ABF4F2C91868D90E001968F739070AF
:100F6000868FA689B7892C93A089B1898C918064DA
:100F70008C93A289B3898C9180628C93B6CF80E0E8
:100F800091E00E942913AC01E0915304F0915404C4
:100F90000280F381E02D83E594E060E071E0099543
:100FA00020E030E0C90108958C918F7D8C939DCF16
:100FB000A289B3898C918F7D8C9387CFCF93DF9358
:100FC000EC01298D3A8D898D9A8D662381F00196E9
:100FD00097FD33C0149A2115310559F481309105DC
:100FE00009F451C09A8F898FDF91CF9108950197AD
:100FF000EFCF21303105B1F70097A1F7E881F981F2
:101000000284F385E02DCE01099562E070E080E076
:1010100090E0EBD8E889F989808186FF22C01A8E9A
:10102000198EEA89FB89808180618083EA89FB8946
:101030008081877F80831C98D7CF85E391E00E94D1
:101040002913AC01E0915304F09154040280F38120
:10105000E02D83E594E065E371E009951A8E198E21
:10106000C3CF8CE491E00E942913AC01E0915304BA
:10107000F09154040280F381E02D83E594E06CE468
:1010800071E00995CCCF9A8F898F1C9AEA89FB89E8
:1010900080818F7E8083EA89FB898081886080835C
:1010A00062E070E080E090E0A0D89ECF61E086CF63
:1010B00060E084CFFC01958D868D9817E1F0868DD8
:1010C000DF01A80FB11DA15ABF4F2C91868D90E072
:1010D00001968F739070868FA689B7892C93A0890B
:1010E000B1898C9180648C930288F389E02D808192
:1010F0008062808308950288F389E02D80818F7D4E
:1011000080830895CF93DF93C4E5D1E0CE010E94A0
:101110002913AC01E0915304F09154040280F3814F
:10112000E02D83E594E0BE010995DF91CF9108950C
:10113000CF92DF92EF92FF921F93CF93DF93EC0158
:101140006A017B01122F60E070E18EE090E0A70160
:1011500096010E94751121503040404050405695F4
:10116000479537952795E889F98982E0808380E162
:101170002030380798F0E889F989108260E078E03B
:1011800087E090E0A70196010E9475112150304040
:10119000404050405695479537952795EC85FD85FD
:1011A0003083EE85FF852083188EEC89FD891083BE
:1011B000149ACE0161E002DFCE0160E0FFDEEA8931
:1011C000FB89808180618083EA89FB898081877FB8
:1011D0008083EA89FB89808180688083EA89FB8932
:1011E00080818F7D80831A8E198EDF91CF911F9120
:1011F000FF90EF90DF90CF900895FC0160833283E1
:101200002183348323835683458317820895FC0109
:1012100015828081873061F09681960F96831782C0
:10122000882381F46A3CF1F020E030E0C9010895A0
:1012300017829681961751F1108284E087832CEFF4
:101240003FEFF4CF8130A9F46A3C31F16E3F49F1B0
:101250008783108281E0282F30E0309521953F4F21
:10126000C9010895668381E0808320E030E0C901F0
:1012700008958230D9F4A181B2816C9383E0808398
:10128000878120E030E0882331F7D0CF88E0808369
:10129000878120E030E0F7CF6683808320E030E074
:1012A000C5CF82E0808320E030E0C0CF833069F496
:1012B000A181B28111966C93119712961C9212978C
:1012C00084E0808320E030E0B1CF843099F0853035
:1012D00089F1863009F44FC0873009F4ABCF8830EC
:1012E00009F45DC0893009F468C01082878120E06C
:1012F00030E0C9CFA181B281362F20E011968D91C7
:101300009C911297822B932B12969C938E931197FC
:10131000148213820097E9F113962D913C91149752
:101320008217930708F043C085E0808380E020E0C7
:1013300030E0A9CFA181B28115960D90BC91A02D6E
:1013400083819481A80FB91F6C9383819481019646
:1013500094838383A181B28111962D913C91129740
:101360008217930719F687E0808381E08583878160
:1013700020E030E088CF8381948101969483838339
:10138000A181B28111962D913C91129782179307FA
:1013900011F487E0808380E020E030E074CF6F3E7E
:1013A000A1F0108282E087832EEF3FEF3FCF86E0EF
:1013B000808380E020E030E066CF6C3A61F01082FC
:1013C00083E087832DEF3FEF31CF89E080838781F2
:1013D00020E030E058CF1082878121E030E053CF09
:1013E000A4E0B1E0E5EFF9E0ACC783EA95E060E6A0
:1013F00071E00E9416139A83898380E090E060E692
:1014000071E00E9416139C838B8335E0E32EF12C50
:10141000EC0EFD1E00E010E021E0C22ED12C009762
:10142000A1F082E0C82ED12CC00ED11E80E090E049
:1014300060E671E00E941613D7018D939D937D01A4
:101440000F5F1F4F0D31110551F700919F0510914E
:10145000A00501151105F9F0E980FA8006C0F80130
:101460000481158101151105B1F0F80160817181C8
:10147000C7010E941913009791F780EF94E016DEE0
:10148000D8011296ED91FC911397C601BE016F5FD2
:101490007F4F09950FC080EF94E008DE8E01035C5A
:1014A0001F4FC8016CE870E00E940F1380EF94E0BA
:1014B000B80126D980EF94E006D98E010F551F4F51
:1014C000C80169EA70E00E940F1380EF94E0B80150
:1014D00017D9C80167ED70E00E940F1380EF94E008
:1014E000B801C5D880EF94E0E3DDCC5FDE4FE8E0E3
:1014F00044C71F9380EF94E0EBDB182F8091E10548
:101500008823E1F41D3009F44AC01A3C31F1183047
:1015100069F180EF94E0CADD80EF94E0612FCBD8D1
:1015200080EF94E0C5DDE091DF05F091E0051193D7
:10153000F093E005E093DF051F9108958FE895E0B3
:10154000612F65DE009709F043C080918F058823E5
:1015500099F71092E1051F91089581E08093E105CC
:101560008FE895E06AEC53DE1F91089580EF94E0D8
:101570009DDD80EF94E068E09ED880EF94E098DDF8
:101580008091DF059091E00525E0833A9207A1F272
:1015900098F201979093E0058093DF05CDCFE0911D
:1015A000DF05F091E005108280EF94E07FDD80EFB1
:1015B00094E062E671E05BD813DF80EF94E078DDC1
:1015C00083EA95E09093E0058093DF051F910895ED
:1015D00087E995E0D2D31092E105AECF01C089DF53
:1015E00080EF94E059DB0097D1F70895EF92FF92D6
:1015F0000F931F93CF93DF937B018C0183EA95E0D8
:101600009093E0058093DF051092A2051092A1054A
:101610001092E105C7E9D5E0CE0160E042EE55E069
:1016200028E730E0EADD10928F05D0939105C09352
:10163000900580EF94E0B801A70126E079DDCDB7F1
:10164000DEB7E6E09CC6EF92FF920F931F93CF9315
:10165000DF93EC017B0186E090E0A4D680939F05A8
:101660009093A005CE01F5D701969CD68C01BE01C2
:10167000E9D7CE01EED7F801E80FF91F1082E0910B
:101680009F05F091A00511830083F382E28280918F
:10169000A1059091A20595838483F093A205E09320
:1016A000A105CDB7DEB7E6E06AC680EF94E065E657
:1016B00071E026C8A4E6B0E0EFE5FBE044C6FB011C
:1016C00097FD88C0F280E3808F2D9E2DC2D78C01BC
:1016D000843391050CF073C082E0898310161106E3
:1016E0000CF05FC0AE014E5F5F4FDA01C701E92F1A
:1016F000F82F7F019A01200F311F62E0C701F70127
:1017000071917F017D93FC018081680FA217B3075F
:10171000A9F7400F511F83E0FA0180836D5F9801A4
:101720002E5F3F4F862F90E09595879595958795ED
:1017300095958795959587958F708A30E0F1895CAE
:101740007E010894E11CF11C2E0D3F1DF9018083E0
:10175000F80133966F706A3080F1695CEE0DFF1D01
:101760006083FE01E00FF11F8DE0858380EF94E040
:1017700062EC71E00E948003E0915304F091540404
:10178000A8014B5F5F4F0280F381E02D83E594E079
:10179000B701099510925A06CC59DF4FE6E0EFC524
:1017A00020C0FE01E00FF11F83E0828398012E5FCD
:1017B0003F4F80E065E0805DC3CF605DCFCF80EFBD
:1017C00094E061EA71E00E948003CC59DF4FE6E0CB
:1017D000D6C507C080EF94E068E771E00E948003FF
:1017E000DBCF0F931F93CF93DF9306EE11E0C80179
:1017F00030D7AC01E091F004F091F104C0EFD4E0F7
:101800000280F381E02DCE01B8010995CE0161E39C
:101810004FDBCE016EE24CDBCE0161E349DBCE0152
:1018200060EF71E00E948003DF91CF911F910F91D3
:1018300008950F931F93CF93DF9303EF11E0C80137
:1018400008D7AC01E091F004F091F104C0EFD4E0CE
:101850000280F381E02DCE01B80109950FE012E07E
:10186000C801F7D6AC01E091F004F091F1040280D8
:10187000F381E02DCE01B801099506E212E0C8011E
:10188000E8D6AC01E091F004F091F1040280F3811C
:10189000E02DCE01B80109950AE612E0C801D9D6BB
:1018A000AC01E091F004F091F1040280F381E02DAD
:1018B000CE01B80109950EE912E0C801CAD6AC0103
:1018C000E091F004F091F1040280F381E02DCE016B
:1018D000B801099507ED12E0C801BBD6AC01E09153
:1018E000F004F091F1040280F381E02DCE01B80103
:1018F00009950FEE12E0C801ACD6AC01E091F004FE
:10190000F091F1040280F381E02DCE01B801099538
:1019100009E013E0C8019DD6AC01E091F004F0911C
:10192000F1040280F381E02DCE01B8010995DF9129
:10193000CF911F910F91089581E393E08AD6AC0176
:10194000E091F004F091F1040280F381E02D80EF4A
:1019500094E061E373E009951F9944C08EE393E03E
:1019600078D6AC01E091F004F091F1040280F381AB
:10197000E02D80EF94E06EE373E0099582E493E05C
:1019800068D6AC01E091F004F091F1040280F3819B
:10199000E02D80EF94E062E473E009951D9911C099
:1019A0008EE393E056D6AC01E091F004F091F1049F
:1019B0000280F381E02D80EF94E06EE373E00995FF
:1019C00008958AE393E045D6AC01E091F004F091EC
:1019D000F1040280F381E02D80EF94E06AE373E08C
:1019E000099508958AE393E034D6AC01E091F004C0
:1019F000F091F1040280F381E02D80EF94E06AE33E
:101A000073E00995BBCF0F931F93CF93DF938B01A7
:101A1000181619060CF074C0FB01C281D3818AE448
:101A200093E0BE0106D6009709F454C088E593E020
:101A3000BE01FFD50097C1F186E693E00AD6AC015E
:101A4000E091F004F091F1040280F381E02D80EF49
:101A500094E066E673E00995F801C281D38120978E
:101A600071F0CE01F6D5AC01E091F004F091F104F3
:101A70000280F381E02D80EF94E0BE01099581E8BA
:101A800093E0E7D5AC01E091F004F091F10402801D
:101A9000F381E02D80EF94E061E873E00995DF9138
:101AA000CF911F910F9108958AE593E0D2D5AC01B3
:101AB000E091F004F091F1040280F381E02D80EFD9
:101AC00094E06AE573E009951F98DF91CF911F912B
:101AD0000F9108958CE493E0BCD5AC01E091F00443
:101AE000F091F1040280F381E02D80EF94E06CE44A
:101AF00073E009951F9ADF91CF911F910F9108957F
:101B000081E393E0A6D5AC01E091F004F091F104FB
:101B10000280F381E02D80EF94E061E373E00995AA
:101B20001F9915C08EE393E094D5AC01E091F004C9
:101B3000F091F1040280F381E02D80EF94E06EE3F8
:101B400073E00995DF91CF911F910F9108958AE37A
:101B500093E07FD5AC01E091F004F091F1040280B4
:101B6000F381E02D80EF94E06AE373E0099597CF6D
:101B70000F931F93CF93DF938B01181619060CF068
:101B800074C0FB01C281D3818AE493E0BE0151D5C8
:101B9000009709F454C088E593E0BE014AD5009748
:101BA000C1F181EA93E055D5AC01E091F004F091E8
:101BB000F1040280F381E02D80EF94E061EA73E0AC
:101BC0000995F801C281D381209771F0CE0141D5EA
:101BD000AC01E091F004F091F1040280F381E02D7A
:101BE00080EF94E0BE01099581E893E032D5AC0125
:101BF000E091F004F091F1040280F381E02D80EF98
:101C000094E061E873E00995DF91CF911F910F9106
:101C1000089583E993E01DD5AC01E091F004F091C3
:101C2000F1040280F381E02D80EF94E063E973E03A
:101C300009951D98DF91CF911F910F91089585E827
:101C400093E007D5AC01E091F004F091F10402803B
:101C5000F381E02D80EF94E065E873E009951D9A2B
:101C6000DF91CF911F910F91089582E493E0F1D419
:101C7000AC01E091F004F091F1040280F381E02DD9
:101C800080EF94E062E473E009951D9911C08EE342
:101C900093E0DFD4AC01E091F004F091F104028014
:101CA000F381E02D80EF94E06EE373E00995ACCF13
:101CB0008AE393E0CED4AC01E091F004F091F1041A
:101CC0000280F381E02D80EF94E06AE373E00995F0
:101CD0009BCFA0E0B0E0EEE6FEE032C3082F6B0140
:101CE0007A0180EF94E0E2D980EF94E06AECE0D8EA
:101CF00080EF94E06EEFDCD880EF94E0602FD8D8CE
:101D000068ECB62EB00E9701307080EF94E0622F31
:101D1000CFD8BE0C0F2D80EF94E06F2DC9D8BF0C2B
:101D2000E114F10499F000E010E0C0E0D0E00C0D07
:101D30001D1D80EF94E0F8016081BAD8F801808120
:101D4000B80E21968E01CE15DF0588F380EF94E062
:101D50006B2DAED880EF94E06FEEAAD880EF94E0C0
:101D60006CEAA6D880EF94E0A3D99701285F3F4F93
:101D7000C901CDB7DEB7E9E0FFC2AAE0B0E0E2EC0E
:101D8000FEE0DEC28C01DC018C91803109F45CC084
:101D90008131E1F0823171F1833109F467C084311E
:101DA00009F43EC0863109F4BEC08983F8019181EF
:101DB00082819A838B8385E1BE016F5F7F4F43E011
:101DC00050E087DF2A96E9E0D7C2C7C0D801159650
:101DD000ED91FC9116978081882301F51F9881E190
:101DE000BE016F5F7F4F40E050E073DF2A96E9E06D
:101DF000C3C2B3C0D8011596ED91FC9116978081AE
:101E0000882391F11D9A82E1BE016F5F7F4F40E010
:101E100050E05FDF2A96E9E0AFC29FC01F9ADFCF94
:101E200083B1881F8827881F898381E01D9B80E0FC
:101E30008A8384E1BE016F5F7F4F42E050E049DF5B
:101E40002A96E9E099C289C084E0898383E08A8385
:101E500082E08B8381E08C8380E1BE016F5F7F4FE6
:101E600044E050E036DFAECF1D98CDCF83E594E05F
:101E700062E00E942404F80181819281009709F4B4
:101E800064C00580F681E02DCC24DD24EE24FF24FF
:101E9000A2E0BA2EEC0DFD1D83E594E060810E9466
:101EA0002404D8011596ED91FC911697DF01AC0D35
:101EB000BD1D8C91B80E0894E11CF11C6701D8017E
:101EC00011968D919C911297E816F90618F383E507
:101ED00094E063E00E9424040B2D0D5F802F90E0BE
:101EE00095958795959587959595879595958795DA
:101EF0008F708A3018F1682F695C0F7083E594E069
:101F00000E9424040A30F0F0602F695C83E594E0BD
:101F10000E94240483E594E06DE00E94240481E0A3
:101F200080935A064FCF81E089838A8386E1BE0180
:101F30006F5F7F4F42E050E0CCDE44CF682F605DA2
:101F40000F70DCCF602F605DE1CF83E594E063E04C
:101F50000E94240405E060E3D1CF1F933FDB83E5BB
:101F600094E00E94B603009711F41F91089583E551
:101F700094E00E94D203823009F4FCC0909195064F
:101F8000913009F4DAC0923009F4CCC0933009F4EE
:101F90000AC1943009F41CC1953039F710929506A6
:101FA00080915A06882309F0EDC080EF94E07ED836
:101FB00080EF91E04ED3AC01E091F004F091F10498
:101FC0000280F381E02D80EF94E060EF71E00995ED
:101FD0008AEE93E03ED3AC01E091F004F091F1047D
:101FE0000280F381E02D80EF94E06AEE73E00995C2
:101FF000E091F004F091F104409192060280F381A7
:10200000E02D80EF94E06DE576E050E0099581EFFA
:1020100093E01FD3AC01E091F004F091F104028051
:10202000F381E02D80EF94E061EF73E009959091EA
:10203000930680919406981709F45EC084EF93E0AC
:1020400008D3AC01E091F004F091F1040280F38137
:10205000E02D80EF94E064EF73E0099560919306C2
:1020600070E0759567957595679575956795759504
:1020700067956F706A3008F494C0695C80EF94E0F3
:102080000E945807609193066F706A3008F487C009
:10209000695C80EF94E00E94580787E094E0D9D211
:1020A000AC01E091F004F091F1040280F381E02DA5
:1020B00080EF94E067E074E009956091940670E029
:1020C00075956795759567957595679575956795F8
:1020D0006F706A3008F461C0695C80EF94E00E9420
:1020E0005807609194066F706A3008F454C0695CB8
:1020F00080EF94E00E9458078AE094E0AAD2AC01F5
:10210000E091F004F091F1040280F381E02D80EF82
:1021100094E06AE074E0099580EF94E00E9458082A
:102120001F91089590919306980F90939306833092
:1021300009F01BCF8093950618CF90919306980FC6
:1021400090939306833009F457C090919106E92F3C
:10215000F0E0E35AF94F8083892F8F5F80939106D7
:10216000833308F402CF92E090939506EDE5F6E014
:1021700085ABFBCE91E090939506109291068093EB
:102180009306F3CE4091920683E16DE576E050E050
:10219000A0DD1F910895605DABCF605D9ECF605D57
:1021A00078CF605D6BCF90E032D2982F9156963009
:1021B00050F1982F9154963068F180538A3088F509
:1021C0008295807F8093940684E080939506CDCE9F
:1021D0001091940690E01BD2982F91569630B8F04B
:1021E000982F91549630D0F080538A30E0F4812BB0
:1021F0008093940685E09ECF9091910690939206ED
:1022000080939506B2CE87558295807FDBCF875528
:10221000812BEECF8C538295807FD4CF8C53812B32
:10222000E7CF80EFCFCF8FEFE3CF0E94620183E54E
:1022300094E040E056E960E070E026E20E949B04F2
:1022400060E875E280E090E0D1D98EEB93E065E53F
:102250007BE0F9D984EC93E06AE57BE0F4D988EC83
:1022600093E069E17CE0EFD98DEC93E063E07DE001
:10227000EAD983ED93E068EB7DE0E5D98BED93E05F
:102280006CE97CE0E0D982EE93E061EF7BE0DBD9A2
:1022900082B1886B82B981E081BB10929506109261
:1022A0005C0610925B06789458DEFECF629FD001E8
:1022B000739FF001829FE00DF11D649FE00DF11D01
:1022C000929FF00D839FF00D749FF00D659FF00DB0
:1022D0009927729FB00DE11DF91F639FB00DE11D9D
:1022E000F91FBD01CF0111240895A1E21A2EAA1BE6
:1022F000BB1BFD010DC0AA1FBB1FEE1FFF1FA217B6
:10230000B307E407F50720F0A21BB30BE40BF50BB2
:10231000661F771F881F991F1A9469F7609570953B
:10232000809590959B01AC01BD01CF0108952F923E
:102330003F924F925F926F927F928F929F92AF9255
:10234000BF92CF92DF92EF92FF920F931F93CF93A2
:10235000DF93CDB7DEB7CA1BDB0B0FB6F894DEBF39
:102360000FBECDBF09942A88398848885F846E845F
:102370007D848C849B84AA84B984C884DF80EE80A9
:10238000FD800C811B81AA81B981CE0FD11D0FB6B2
:10239000F894DEBF0FBECDBFED0108950790F69112
:1023A000E02D0994CF93DF938230910510F482E001
:1023B00090E0E0919806F091990620E030E040E04E
:1023C00050E028C06081718168177907C8F06817EC
:1023D000790781F4828193814115510531F0DA0149
:1023E00013969C938E9312972DC090939906809389
:1023F000980628C02115310529F06217730710F0DF
:10240000B90102C0EA01DF01AF019B017281638162
:10241000E72FF62F3097B1F62115310501F1281B72
:10242000390B2430310580F412968D919C911397CD
:10243000209719F09B838A8304C090939906809318
:102440009806FD01329646C0FD01E20FF31F81930D
:1024500091932250304011963C932E933BC0209193
:102460009606309197062115310541F42091130409
:10247000309114043093970620939606209115040A
:10248000309116042115310541F42DB73EB7409126
:10249000110450911204241B350BE0919606F09123
:1024A0009706E217F307A0F42E1B3F0B28173907F6
:1024B00078F0AC014E5F5F4F2417350748F04E0FA0
:1024C0005F1F50939706409396068193919302C0A5
:1024D000E0E0F0E0CF01DF91CF910895CF93DF935B
:1024E000009709F491C0FC01329713821282609127
:1024F0009806709199066115710581F420813181EA
:10250000280F391F8091960690919706821793079E
:1025100099F5F0939706E093960676C0DB0180E08C
:1025200090E002C0CD01D901AE17BF0748F4129662
:102530002D913C91139721153105A1F7CD0121C0B3
:10254000B383A283EF01499159919E01240F351F56
:10255000A217B30779F42D913C911197240F351FE1
:102560002E5F3F4F3183208312962D913C9113971C
:1025700033832283009729F4F0939906E093980619
:1025800043C0DC011396FC93EE9312974D915D913D
:10259000A40FB51FEA17FB0769F420813181240FCE
:1025A000351F2E5F3F4FEC01398328832281338111
:1025B0003B832A83E0E0F0E002C0FB01BC01DB01C9
:1025C00012968D919C9113970097B9F79B012E5FFE
:1025D0003F4F8D919C911197820F931F40919606CA
:1025E000509197064817590779F4309729F41092BB
:1025F00099061092980602C013821282225030402F
:102600003093970620939606DF91CF91089591110C
:10261000089581548A5108F4805E855A0895FB011B
:10262000DC0105900D920020E1F7089548E354E0A5
:1026300019C0FB01DC018D91019080190110D9F3C3
:10264000990B0895FB01DC0101900D920020E1F748
:102650000895FC0101900020E9F7809590958E0F78
:102660009F1F0895FA01A191B081009719F4109766
:10267000E1F0CD01DC01CD010D90002011F4C0018D
:1026800013C0FB012191222319F02015D9F7F3CFB4
:10269000FB012191201519F41E92119606C02223E8
:1026A000C1F70D900020A1F7D001FA01A193B083EA
:0626B0000895F894FFCF2D
:1026B60063616E6E6F742077726974652100666C53
:1026C60075736820776169743100666C757368206C
:1026D600776169743200666C757368207761697416
:1026E60020333333005F77726974654D6F646545D7
:1026F6006E61626C65643C30210D0A004552524F92
:1027060052212000747820636F6D706C65746500CB
:1027160020000D0A0048656C6C6F206D792066728A
:1027260069656E64210D0A00706D743A206E6565E8
:1027360064203120706172616D657465722C20654C
:10274600782E672E3A2073656E642048504F0D0A26
:1027560000706D743A20737472696E67206D7573BC
:1027660074206265203C2035322062797465730DD1
:102776000A0053656E64696E6720636F6D6D616EE6
:10278600642076696120727332333220746F207050
:102796006D742E0D0A0076657273696F6E3A2000AD
:1027A6000D0A0068656C70202020202D207072694B
:1027B6006E7420746869732068656C700D0A006811
:1027C600656C6C6F2020202D2068656C6C6F207402
:1027D6006573740D0A00706D7420202020202D2052
:1027E60073656E6420636F6D6D616E6420746F2017
:1027F60048616D616D61747320706D7420706F77C0
:10280600657220636F6E74726F6C6C657220766988
:10281600612072733233320D0A006C6773656C2067
:1028260020202D202830292068672D696E203D3E06
:102836002068672D6F7574202C20283129206C673D
:10284600203D3E2068672D6F7574200D0A00727852
:102856006C6273656C092D2028302920316B2D6739
:102866006E64203D3E206C672D696E202C20283139
:10287600292072733438352D7278203D3E206C67DE
:102886002D696E200D0A00737461747573092D200D
:102896007072696E74207374617475730D0A0076B4
:1028A600657273696F6E092D207072696E74207679
:1028B600657273696F6E0D0A00706D742048504F13
:1028C600202D20676574206D6F6E69746F722069A4
:1028D6006E666F20616E64207374617475730D0A81
:1028E600006C6773656C203D2000310D0A00300DC9
:1028F6000A0072786C62203D200031006C677365B7
:102906006C3D2731270D0A0030006C6773656C3DFE
:102916002730270D0A006C6773656C20696E766137
:102926006C696420706172616D657465723A202706
:1029360000270D0A0072786C6273656C3D2731279B
:102946000D0A0072786C6273656C3D2730270D0A9C
:102956000072786C6273656C20696E76616C69646E
:1029660020706172616D657465723A202700686532
:102976006C6C6F00706D740068656C70006C6773CA
:10298600656C0072786C6273656C00737461747543
:10299600730076657273696F6E00706D743A2027E6
:1029A60000272000636865636B73756D206D69731E
:1029B6006D617463682100213D000D0A434D443E5C
:1029C6000020009A0600000000000024041203B64E
:1029D60003D203C203E90300000000580712034CA8
:0829E60006680658067F060092
:00000001FF
