:020000021000EC
:10E0000045C0000060C000005EC000005CC00000B1
:10E010005AC0000058C0000056C0000054C00000A4
:10E0200052C0000050C000004EC000004CC00000B4
:10E030004AC0000048C0000046C0000044C00000C4
:10E0400042C0000040C000003EC000003CC00000D4
:10E050003AC0000038C0000036C0000034C00000E4
:10E0600032C0000030C000002EC000002CC00000F4
:10E070002AC0000028C0000026C0000024C0000004
:10E0800022C0000020C000001EC0000011241FBEDE
:10E09000CFEFD0E1DEBFCDBF11E0A0E0B1E0E4E51D
:10E0A000F5EE01E00BBF02C007900D92A230B10760
:10E0B000D9F723E0A2E0B1E001C01D92A631B2077A
:10E0C000E1F773D045C29CCF882351F0539913C018
:10E0D00080E094E20197F1F75498539A1C9A0895BE
:10E0E000549909C05E9BFECF80E094E20197F1F75E
:10E0F0001C98549A5398089590910401980F909306
:10E1000004015D9BFECF5E9A8CB908951F93CF9357
:10E11000DF93D82FC92F162F81E0D6DF109204018C
:10E120008AECEADF8EEFE8DF812FE6DF8D2FE4DF78
:10E130008C2FE2DFDF91CF911F9108958091040130
:10E14000DBDF8FEED9DF8CEAD7DF80E0BDCFCF9267
:10E15000DF92EF92FF92CF93DF93C12CD12C760107
:10E16000C9E9D3E05F9B08C08CB1DF91CF91FF90EC
:10E17000EF90DF90CF9008958FEFC81AD80AE80A81
:10E18000F80A89E8C81683E1D806E104F10448F0EA
:10E1900080910001882329F0E0910201F0910301B0
:10E1A0000995CE010197F1F7DDCFA0E0B0E0EAEDEF
:10E1B000F0EFBAC10000129A1C9887E189B9109259
:10E1C00090001BB886E08093950080E18AB953984F
:10E1D00081E080931403F12C98E0C92EEE24E3949F
:10E1E00029E0B22E37E0D32E46E0A42EB0DF909186
:10E1F0001403973009F461C0F80E911107C08A3CEE
:10E20000A9F7E09214038AECF82EF0CF913049F48C
:10E210008A3CC9F38E3F09F098C084E080931403D0
:10E22000E5CF943021F48093050182E0F7CF92305E
:10E2300039F490E0909309018093080183E0EECFD8
:10E240009330D9F42091080130910901382B309393
:10E25000090120930801109207011092060121156F
:10E26000310519F4D0921403C1CF2430314010F499
:10E2700085E0D4CFA0921403B9CF9530B9F42091A2
:10E28000060130910701F901E15FFD4F8083C9016B
:10E290000196909307018093060120910801309127
:10E2A00009018217930709F0A1CFDCCF963051F412
:10E2B0008091060190910701EBCFF81246C0C09201
:10E2C000140394CF983031F48F3E09F03EC0B092E1
:10E2D00014038CCF993009F038C08C3A09F035C05E
:10E2E000E09214031092000180910501813009F041
:10E2F0002FC061E083E190E009DF81E0FDDE81E095
:10E30000FBDE89E4F9DE83E4F7DE85E4F5DE83E510
:10E31000F3DE83E4F1DE89E4EFDE8EE4EDDE84E516
:10E32000EBDE80E2E9DE87E4E7DE80E5E5DE82E43D
:10E33000E3DE80E2E1DE82E4DFDE8FE4DDDE8FE437
:10E34000DBDE84E5D9DEFADE51CF109214034ECF26
:10E35000823009F084C080910F0280930A0180917D
:10E36000100280930B012091080130910901A9014D
:10E370004250510950930D0240930C02E1E1F2E04A
:10E38000ACE0B1E0215F3D4F2E173F0709F064C0BC
:10E39000880F880B8E21809313038BBF80910C0212
:10E3A00080FF09C080910C0290910D02019690931C
:10E3B0000D0280930C02F894E199FECF1127E091B1
:10E3C0000A01F0910B01CCE0D1E080910C02909118
:10E3D0000D02103091F40091680001700130D9F302
:10E3E00003E000936800E895009168000170013037
:10E3F000D9F301E100936800E89509901990009124
:10E40000680001700130D9F301E000936800E895DD
:10E410001395103898F011270091680001700130B1
:10E42000D9F305E000936800E89500916800017059
:10E430000130D9F301E100936800E8953296029724
:10E4400009F0C7CF103011F00296E5CF112462E039
:10E4500080E090E05BDE77CF91919D9395CF833004
:10E4600009F04BC080910F0280930A018091100245
:10E4700080930B018091110280930C028091120213
:10E4800080930D0220910A0130910B0180911503B8
:10E4900037FF29C082608093150363E080910C02EE
:10E4A00090910D0233DE00E010E080910C0290911B
:10E4B0000D020817190708F046CF80911503E09167
:10E4C0000A01F0910B0181FD10C0849115DE80914D
:10E4D0000A0190910B01019690930B0180930A0120
:10E4E0000F5F1F4FE2CF8D7FD6CFCF01A0E0B0E00E
:10E4F0001196ABBFFC018791E9CF853059F465E0F7
:10E5000080E090E003DE1ADEE0910201F091030169
:10E5100009956CCE64E09CCF2F923F924F925F9210
:10E520006F927F928F929F92AF92BF92CF92DF9223
:10E53000EF92FF920F931F93CF93DF93CDB7DEB788
:10E54000CA1BDB0B0FB6F894DEBF0FBECDBF09941C
:04E55000F894FFCF6D
:02E554000100C4
:040000031000E00009
:00000001FF
